{
  "_format": "hh-sol-artifact-1",
  "contractName": "MyAwesomeNFT",
  "sourceName": "contracts/myAwesomeNFT.sol",
  "abi": [
    {
      "inputs": [],
      "stateMutability": "nonpayable",
      "type": "constructor"
    },
    {
      "anonymous": false,
      "inputs": [
        {
          "indexed": true,
          "internalType": "address",
          "name": "owner",
          "type": "address"
        },
        {
          "indexed": true,
          "internalType": "address",
          "name": "approved",
          "type": "address"
        },
        {
          "indexed": true,
          "internalType": "uint256",
          "name": "tokenId",
          "type": "uint256"
        }
      ],
      "name": "Approval",
      "type": "event"
    },
    {
      "anonymous": false,
      "inputs": [
        {
          "indexed": true,
          "internalType": "address",
          "name": "owner",
          "type": "address"
        },
        {
          "indexed": true,
          "internalType": "address",
          "name": "operator",
          "type": "address"
        },
        {
          "indexed": false,
          "internalType": "bool",
          "name": "approved",
          "type": "bool"
        }
      ],
      "name": "ApprovalForAll",
      "type": "event"
    },
    {
      "anonymous": false,
      "inputs": [
        {
          "indexed": true,
          "internalType": "address",
          "name": "previousOwner",
          "type": "address"
        },
        {
          "indexed": true,
          "internalType": "address",
          "name": "newOwner",
          "type": "address"
        }
      ],
      "name": "OwnershipTransferred",
      "type": "event"
    },
    {
      "anonymous": false,
      "inputs": [
        {
          "indexed": false,
          "internalType": "address",
          "name": "account",
          "type": "address"
        }
      ],
      "name": "Paused",
      "type": "event"
    },
    {
      "anonymous": false,
      "inputs": [
        {
          "indexed": true,
          "internalType": "address",
          "name": "from",
          "type": "address"
        },
        {
          "indexed": true,
          "internalType": "address",
          "name": "to",
          "type": "address"
        },
        {
          "indexed": true,
          "internalType": "uint256",
          "name": "tokenId",
          "type": "uint256"
        }
      ],
      "name": "Transfer",
      "type": "event"
    },
    {
      "anonymous": false,
      "inputs": [
        {
          "indexed": false,
          "internalType": "address",
          "name": "account",
          "type": "address"
        }
      ],
      "name": "Unpaused",
      "type": "event"
    },
    {
      "inputs": [],
      "name": "_tokenIds",
      "outputs": [
        {
          "internalType": "uint256",
          "name": "_value",
          "type": "uint256"
        }
      ],
      "stateMutability": "view",
      "type": "function"
    },
    {
      "inputs": [
        {
          "internalType": "address",
          "name": "to",
          "type": "address"
        },
        {
          "internalType": "uint256",
          "name": "tokenId",
          "type": "uint256"
        }
      ],
      "name": "approve",
      "outputs": [],
      "stateMutability": "nonpayable",
      "type": "function"
    },
    {
      "inputs": [
        {
          "internalType": "address",
          "name": "owner",
          "type": "address"
        }
      ],
      "name": "balanceOf",
      "outputs": [
        {
          "internalType": "uint256",
          "name": "",
          "type": "uint256"
        }
      ],
      "stateMutability": "view",
      "type": "function"
    },
    {
      "inputs": [],
      "name": "getAllNftsOfOwner",
      "outputs": [
        {
          "internalType": "uint256[]",
          "name": "",
          "type": "uint256[]"
        }
      ],
      "stateMutability": "view",
      "type": "function"
    },
    {
      "inputs": [
        {
          "internalType": "uint256",
          "name": "tokenId",
          "type": "uint256"
        }
      ],
      "name": "getApproved",
      "outputs": [
        {
          "internalType": "address",
          "name": "",
          "type": "address"
        }
      ],
      "stateMutability": "view",
      "type": "function"
    },
    {
      "inputs": [
        {
          "internalType": "address",
          "name": "owner",
          "type": "address"
        },
        {
          "internalType": "address",
          "name": "operator",
          "type": "address"
        }
      ],
      "name": "isApprovedForAll",
      "outputs": [
        {
          "internalType": "bool",
          "name": "",
          "type": "bool"
        }
      ],
      "stateMutability": "view",
      "type": "function"
    },
    {
      "inputs": [],
      "name": "maxSupply",
      "outputs": [
        {
          "internalType": "uint256",
          "name": "",
          "type": "uint256"
        }
      ],
      "stateMutability": "view",
      "type": "function"
    },
    {
      "inputs": [
        {
          "internalType": "uint256",
          "name": "_amount",
          "type": "uint256"
        }
      ],
      "name": "multipleMint",
      "outputs": [],
      "stateMutability": "payable",
      "type": "function"
    },
    {
      "inputs": [],
      "name": "name",
      "outputs": [
        {
          "internalType": "string",
          "name": "",
          "type": "string"
        }
      ],
      "stateMutability": "view",
      "type": "function"
    },
    {
      "inputs": [
        {
          "internalType": "address",
          "name": "",
          "type": "address"
        },
        {
          "internalType": "uint256",
          "name": "",
          "type": "uint256"
        }
      ],
      "name": "nftsToOwner",
      "outputs": [
        {
          "internalType": "uint256",
          "name": "",
          "type": "uint256"
        }
      ],
      "stateMutability": "view",
      "type": "function"
    },
    {
      "inputs": [],
      "name": "owner",
      "outputs": [
        {
          "internalType": "address",
          "name": "",
          "type": "address"
        }
      ],
      "stateMutability": "view",
      "type": "function"
    },
    {
      "inputs": [
        {
          "internalType": "uint256",
          "name": "tokenId",
          "type": "uint256"
        }
      ],
      "name": "ownerOf",
      "outputs": [
        {
          "internalType": "address",
          "name": "",
          "type": "address"
        }
      ],
      "stateMutability": "view",
      "type": "function"
    },
    {
      "inputs": [],
      "name": "pause",
      "outputs": [],
      "stateMutability": "nonpayable",
      "type": "function"
    },
    {
      "inputs": [],
      "name": "paused",
      "outputs": [
        {
          "internalType": "bool",
          "name": "",
          "type": "bool"
        }
      ],
      "stateMutability": "view",
      "type": "function"
    },
    {
      "inputs": [],
      "name": "renounceOwnership",
      "outputs": [],
      "stateMutability": "nonpayable",
      "type": "function"
    },
    {
      "inputs": [
        {
          "internalType": "address",
          "name": "from",
          "type": "address"
        },
        {
          "internalType": "address",
          "name": "to",
          "type": "address"
        },
        {
          "internalType": "uint256",
          "name": "tokenId",
          "type": "uint256"
        }
      ],
      "name": "safeTransferFrom",
      "outputs": [],
      "stateMutability": "nonpayable",
      "type": "function"
    },
    {
      "inputs": [
        {
          "internalType": "address",
          "name": "from",
          "type": "address"
        },
        {
          "internalType": "address",
          "name": "to",
          "type": "address"
        },
        {
          "internalType": "uint256",
          "name": "tokenId",
          "type": "uint256"
        },
        {
          "internalType": "bytes",
          "name": "data",
          "type": "bytes"
        }
      ],
      "name": "safeTransferFrom",
      "outputs": [],
      "stateMutability": "nonpayable",
      "type": "function"
    },
    {
      "inputs": [
        {
          "internalType": "address",
          "name": "operator",
          "type": "address"
        },
        {
          "internalType": "bool",
          "name": "approved",
          "type": "bool"
        }
      ],
      "name": "setApprovalForAll",
      "outputs": [],
      "stateMutability": "nonpayable",
      "type": "function"
    },
    {
      "inputs": [
        {
          "internalType": "string",
          "name": "_value",
          "type": "string"
        }
      ],
      "name": "setBaseUri",
      "outputs": [],
      "stateMutability": "nonpayable",
      "type": "function"
    },
    {
      "inputs": [
        {
          "internalType": "string",
          "name": "_value",
          "type": "string"
        }
      ],
      "name": "setDefaultUri",
      "outputs": [],
      "stateMutability": "nonpayable",
      "type": "function"
    },
    {
      "inputs": [
        {
          "internalType": "bytes4",
          "name": "interfaceId",
          "type": "bytes4"
        }
      ],
      "name": "supportsInterface",
      "outputs": [
        {
          "internalType": "bool",
          "name": "",
          "type": "bool"
        }
      ],
      "stateMutability": "view",
      "type": "function"
    },
    {
      "inputs": [],
      "name": "symbol",
      "outputs": [
        {
          "internalType": "string",
          "name": "",
          "type": "string"
        }
      ],
      "stateMutability": "view",
      "type": "function"
    },
    {
      "inputs": [
        {
          "internalType": "uint256",
          "name": "index",
          "type": "uint256"
        }
      ],
      "name": "tokenByIndex",
      "outputs": [
        {
          "internalType": "uint256",
          "name": "",
          "type": "uint256"
        }
      ],
      "stateMutability": "view",
      "type": "function"
    },
    {
      "inputs": [
        {
          "internalType": "address",
          "name": "owner",
          "type": "address"
        },
        {
          "internalType": "uint256",
          "name": "index",
          "type": "uint256"
        }
      ],
      "name": "tokenOfOwnerByIndex",
      "outputs": [
        {
          "internalType": "uint256",
          "name": "",
          "type": "uint256"
        }
      ],
      "stateMutability": "view",
      "type": "function"
    },
    {
      "inputs": [],
      "name": "tokenPrice",
      "outputs": [
        {
          "internalType": "uint256",
          "name": "",
          "type": "uint256"
        }
      ],
      "stateMutability": "view",
      "type": "function"
    },
    {
      "inputs": [
        {
          "internalType": "uint256",
          "name": "tokenId",
          "type": "uint256"
        }
      ],
      "name": "tokenURI",
      "outputs": [
        {
          "internalType": "string",
          "name": "",
          "type": "string"
        }
      ],
      "stateMutability": "view",
      "type": "function"
    },
    {
      "inputs": [],
      "name": "totalSupply",
      "outputs": [
        {
          "internalType": "uint256",
          "name": "",
          "type": "uint256"
        }
      ],
      "stateMutability": "view",
      "type": "function"
    },
    {
      "inputs": [
        {
          "internalType": "address",
          "name": "from",
          "type": "address"
        },
        {
          "internalType": "address",
          "name": "to",
          "type": "address"
        },
        {
          "internalType": "uint256",
          "name": "tokenId",
          "type": "uint256"
        }
      ],
      "name": "transferFrom",
      "outputs": [],
      "stateMutability": "nonpayable",
      "type": "function"
    },
    {
      "inputs": [
        {
          "internalType": "address",
          "name": "newOwner",
          "type": "address"
        }
      ],
      "name": "transferOwnership",
      "outputs": [],
      "stateMutability": "nonpayable",
      "type": "function"
    },
    {
      "inputs": [],
      "name": "unitMint",
      "outputs": [],
      "stateMutability": "payable",
      "type": "function"
    },
    {
      "inputs": [],
      "name": "unpause",
      "outputs": [],
      "stateMutability": "nonpayable",
      "type": "function"
    },
    {
      "inputs": [],
      "name": "withdrawMoney",
      "outputs": [],
      "stateMutability": "nonpayable",
      "type": "function"
    }
  ],
  "bytecode": "0x60806040526040518060400160405280600e81526020017f7777772e676f6f676c652e636f6d000000000000000000000000000000000000815250600e90816200004a9190620004b7565b5066038d7ea4c68000601055600a6011553480156200006857600080fd5b506040518060400160405280600a81526020017f43727970746f43617473000000000000000000000000000000000000000000008152506040518060400160405280600481526020017f43415453000000000000000000000000000000000000000000000000000000008152508160009081620000e69190620004b7565b508060019081620000f89190620004b7565b5050506200011b6200010f6200016f60201b60201c565b6200017760201b60201c565b6000600b60146101000a81548160ff0219169083151502179055506001600c8190555060405180606001604052806036815260200162004a1760369139600f9081620001689190620004b7565b506200059e565b600033905090565b6000600b60009054906101000a900473ffffffffffffffffffffffffffffffffffffffff16905081600b60006101000a81548173ffffffffffffffffffffffffffffffffffffffff021916908373ffffffffffffffffffffffffffffffffffffffff1602179055508173ffffffffffffffffffffffffffffffffffffffff168173ffffffffffffffffffffffffffffffffffffffff167f8be0079c531659141344cd1fd0a4f28419497f9722a3daafe3b4186f6b6457e060405160405180910390a35050565b600081519050919050565b7f4e487b7100000000000000000000000000000000000000000000000000000000600052604160045260246000fd5b7f4e487b7100000000000000000000000000000000000000000000000000000000600052602260045260246000fd5b60006002820490506001821680620002bf57607f821691505b602082108103620002d557620002d462000277565b5b50919050565b60008190508160005260206000209050919050565b60006020601f8301049050919050565b600082821b905092915050565b6000600883026200033f7fffffffffffffffffffffffffffffffffffffffffffffffffffffffffffffffff8262000300565b6200034b868362000300565b95508019841693508086168417925050509392505050565b6000819050919050565b6000819050919050565b600062000398620003926200038c8462000363565b6200036d565b62000363565b9050919050565b6000819050919050565b620003b48362000377565b620003cc620003c3826200039f565b8484546200030d565b825550505050565b600090565b620003e3620003d4565b620003f0818484620003a9565b505050565b5b8181101562000418576200040c600082620003d9565b600181019050620003f6565b5050565b601f82111562000467576200043181620002db565b6200043c84620002f0565b810160208510156200044c578190505b620004646200045b85620002f0565b830182620003f5565b50505b505050565b600082821c905092915050565b60006200048c600019846008026200046c565b1980831691505092915050565b6000620004a7838362000479565b9150826002028217905092915050565b620004c2826200023d565b67ffffffffffffffff811115620004de57620004dd62000248565b5b620004ea8254620002a6565b620004f78282856200041c565b600060209050601f8311600181146200052f57600084156200051a578287015190505b62000526858262000499565b86555062000596565b601f1984166200053f86620002db565b60005b82811015620005695784890151825560018201915060208501945060208101905062000542565b8683101562000589578489015162000585601f89168262000479565b8355505b6001600288020188555050505b505050505050565b61446980620005ae6000396000f3fe6080604052600436106101e35760003560e01c8063715018a611610102578063aa46a40011610095578063c87b56dd11610064578063c87b56dd1461068c578063d5abeb01146106c9578063e985e9c5146106f4578063f2fde38b14610731576101e3565b8063aa46a400146105f6578063ac44600214610621578063acb93cb714610638578063b88d4fde14610663576101e3565b80638da5cb5b116100d15780638da5cb5b1461054e57806395d89b4114610579578063a0bcfc7f146105a4578063a22cb465146105cd576101e3565b8063715018a6146104d957806375895b13146104f05780637ff9b5961461050c5780638456cb5914610537576101e3565b806342842e0e1161017a5780635c975abb116101495780635c975abb146103f75780636352211e1461042257806364ac7f491461045f57806370a082311461049c576101e3565b806342842e0e1461035e578063466a18de146103875780634f6ccce7146103b057806353888e16146103ed576101e3565b806318160ddd116101b657806318160ddd146102b657806323b872dd146102e15780632f745c591461030a5780633f4ba83a14610347576101e3565b806301ffc9a7146101e857806306fdde0314610225578063081812fc14610250578063095ea7b31461028d575b600080fd5b3480156101f457600080fd5b5061020f600480360381019061020a9190612cab565b61075a565b60405161021c9190612cf3565b60405180910390f35b34801561023157600080fd5b5061023a61076c565b6040516102479190612d9e565b60405180910390f35b34801561025c57600080fd5b5061027760048036038101906102729190612df6565b6107fe565b6040516102849190612e64565b60405180910390f35b34801561029957600080fd5b506102b460048036038101906102af9190612eab565b610844565b005b3480156102c257600080fd5b506102cb61095b565b6040516102d89190612efa565b60405180910390f35b3480156102ed57600080fd5b5061030860048036038101906103039190612f15565b610968565b005b34801561031657600080fd5b50610331600480360381019061032c9190612eab565b6109c8565b60405161033e9190612efa565b60405180910390f35b34801561035357600080fd5b5061035c610a6d565b005b34801561036a57600080fd5b5061038560048036038101906103809190612f15565b610a7f565b005b34801561039357600080fd5b506103ae60048036038101906103a99190612fcd565b610a9f565b005b3480156103bc57600080fd5b506103d760048036038101906103d29190612df6565b610abd565b6040516103e49190612efa565b60405180910390f35b6103f5610b2e565b005b34801561040357600080fd5b5061040c610c70565b6040516104199190612cf3565b60405180910390f35b34801561042e57600080fd5b5061044960048036038101906104449190612df6565b610c87565b6040516104569190612e64565b60405180910390f35b34801561046b57600080fd5b5061048660048036038101906104819190612eab565b610d0d565b6040516104939190612efa565b60405180910390f35b3480156104a857600080fd5b506104c360048036038101906104be919061301a565b610d3e565b6040516104d09190612efa565b60405180910390f35b3480156104e557600080fd5b506104ee610df5565b005b61050a60048036038101906105059190612df6565b610e09565b005b34801561051857600080fd5b50610521610f75565b60405161052e9190612efa565b60405180910390f35b34801561054357600080fd5b5061054c610f7b565b005b34801561055a57600080fd5b50610563610f8d565b6040516105709190612e64565b60405180910390f35b34801561058557600080fd5b5061058e610fb7565b60405161059b9190612d9e565b60405180910390f35b3480156105b057600080fd5b506105cb60048036038101906105c69190612fcd565b611049565b005b3480156105d957600080fd5b506105f460048036038101906105ef9190613073565b611067565b005b34801561060257600080fd5b5061060b61107d565b6040516106189190612efa565b60405180910390f35b34801561062d57600080fd5b50610636611089565b005b34801561064457600080fd5b5061064d6110ea565b60405161065a9190613171565b60405180910390f35b34801561066f57600080fd5b5061068a600480360381019061068591906132c3565b61117f565b005b34801561069857600080fd5b506106b360048036038101906106ae9190612df6565b6111e1565b6040516106c09190612d9e565b60405180910390f35b3480156106d557600080fd5b506106de6112cd565b6040516106eb9190612efa565b60405180910390f35b34801561070057600080fd5b5061071b60048036038101906107169190613346565b6112d3565b6040516107289190612cf3565b60405180910390f35b34801561073d57600080fd5b506107586004803603810190610753919061301a565b611367565b005b6000610765826113ea565b9050919050565b60606000805461077b906133b5565b80601f01602080910402602001604051908101604052809291908181526020018280546107a7906133b5565b80156107f45780601f106107c9576101008083540402835291602001916107f4565b820191906000526020600020905b8154815290600101906020018083116107d757829003601f168201915b5050505050905090565b600061080982611464565b6004600083815260200190815260200160002060009054906101000a900473ffffffffffffffffffffffffffffffffffffffff169050919050565b600061084f82610c87565b90508073ffffffffffffffffffffffffffffffffffffffff168373ffffffffffffffffffffffffffffffffffffffff16036108bf576040517f08c379a00000000000000000000000000000000000000000000000000000000081526004016108b690613458565b60405180910390fd5b8073ffffffffffffffffffffffffffffffffffffffff166108de6114af565b73ffffffffffffffffffffffffffffffffffffffff16148061090d575061090c816109076114af565b6112d3565b5b61094c576040517f08c379a0000000000000000000000000000000000000000000000000000000008152600401610943906134ea565b60405180910390fd5b61095683836114b7565b505050565b6000600980549050905090565b6109796109736114af565b82611570565b6109b8576040517f08c379a00000000000000000000000000000000000000000000000000000000081526004016109af9061357c565b60405180910390fd5b6109c3838383611605565b505050565b60006109d383610d3e565b8210610a14576040517f08c379a0000000000000000000000000000000000000000000000000000000008152600401610a0b9061360e565b60405180910390fd5b600760008473ffffffffffffffffffffffffffffffffffffffff1673ffffffffffffffffffffffffffffffffffffffff168152602001908152602001600020600083815260200190815260200160002054905092915050565b610a756118fe565b610a7d61197c565b565b610a9a8383836040518060200160405280600081525061117f565b505050565b610aa76118fe565b8181600e9182610ab89291906137e5565b505050565b6000610ac761095b565b8210610b08576040517f08c379a0000000000000000000000000000000000000000000000000000000008152600401610aff90613927565b60405180910390fd5b60098281548110610b1c57610b1b613947565b5b90600052602060002001549050919050565b610b366119df565b610b3e611a29565b601054341015610b83576040517f08c379a0000000000000000000000000000000000000000000000000000000008152600401610b7a906139c2565b60405180910390fd5b6011546001610b92600d611a78565b610b9c9190613a11565b1115610bdd576040517f08c379a0000000000000000000000000000000000000000000000000000000008152600401610bd490613a91565b60405180910390fd5b610be7600d611a86565b6000610bf3600d611a78565b9050601260003373ffffffffffffffffffffffffffffffffffffffff1673ffffffffffffffffffffffffffffffffffffffff168152602001908152602001600020819080600181540180825580915050600190039060005260206000200160009091909190915055610c653382611a9c565b50610c6e611aba565b565b6000600b60149054906101000a900460ff16905090565b600080610c9383611ac4565b9050600073ffffffffffffffffffffffffffffffffffffffff168173ffffffffffffffffffffffffffffffffffffffff1603610d04576040517f08c379a0000000000000000000000000000000000000000000000000000000008152600401610cfb90613afd565b60405180910390fd5b80915050919050565b60126020528160005260406000208181548110610d2957600080fd5b90600052602060002001600091509150505481565b60008073ffffffffffffffffffffffffffffffffffffffff168273ffffffffffffffffffffffffffffffffffffffff1603610dae576040517f08c379a0000000000000000000000000000000000000000000000000000000008152600401610da590613b8f565b60405180910390fd5b600360008373ffffffffffffffffffffffffffffffffffffffff1673ffffffffffffffffffffffffffffffffffffffff168152602001908152602001600020549050919050565b610dfd6118fe565b610e076000611b01565b565b610e116119df565b610e19611a29565b80601054610e279190613baf565b341015610e69576040517f08c379a0000000000000000000000000000000000000000000000000000000008152600401610e60906139c2565b60405180910390fd5b60115481610e77600d611a78565b610e819190613a11565b1115610ec2576040517f08c379a0000000000000000000000000000000000000000000000000000000008152600401610eb990613a91565b60405180910390fd5b60005b81811015610f6957610ed7600d611a86565b6000610ee3600d611a78565b9050601260003373ffffffffffffffffffffffffffffffffffffffff1673ffffffffffffffffffffffffffffffffffffffff168152602001908152602001600020819080600181540180825580915050600190039060005260206000200160009091909190915055610f553382611a9c565b508080610f6190613bf1565b915050610ec5565b50610f72611aba565b50565b60105481565b610f836118fe565b610f8b611bc7565b565b6000600b60009054906101000a900473ffffffffffffffffffffffffffffffffffffffff16905090565b606060018054610fc6906133b5565b80601f0160208091040260200160405190810160405280929190818152602001828054610ff2906133b5565b801561103f5780601f106110145761010080835404028352916020019161103f565b820191906000526020600020905b81548152906001019060200180831161102257829003601f168201915b5050505050905090565b6110516118fe565b8181600f91826110629291906137e5565b505050565b6110796110726114af565b8383611c2a565b5050565b600d8060000154905081565b6110916118fe565b611099611a29565b3373ffffffffffffffffffffffffffffffffffffffff166108fc479081150290604051600060405180830381858888f193505050501580156110df573d6000803e3d6000fd5b506110e8611aba565b565b6060601260003373ffffffffffffffffffffffffffffffffffffffff1673ffffffffffffffffffffffffffffffffffffffff16815260200190815260200160002080548060200260200160405190810160405280929190818152602001828054801561117557602002820191906000526020600020905b815481526020019060010190808311611161575b5050505050905090565b61119061118a6114af565b83611570565b6111cf576040517f08c379a00000000000000000000000000000000000000000000000000000000081526004016111c69061357c565b60405180910390fd5b6111db84848484611d96565b50505050565b60606111ec82611df2565b6111f557600080fd5b60006111ff611e33565b9050600081510361129a57600e8054611217906133b5565b80601f0160208091040260200160405190810160405280929190818152602001828054611243906133b5565b80156112905780601f1061126557610100808354040283529160200191611290565b820191906000526020600020905b81548152906001019060200180831161127357829003601f168201915b50505050506112c5565b806112a484611ec5565b6040516020016112b5929190613cc1565b6040516020818303038152906040525b915050919050565b60115481565b6000600560008473ffffffffffffffffffffffffffffffffffffffff1673ffffffffffffffffffffffffffffffffffffffff16815260200190815260200160002060008373ffffffffffffffffffffffffffffffffffffffff1673ffffffffffffffffffffffffffffffffffffffff16815260200190815260200160002060009054906101000a900460ff16905092915050565b61136f6118fe565b600073ffffffffffffffffffffffffffffffffffffffff168173ffffffffffffffffffffffffffffffffffffffff16036113de576040517f08c379a00000000000000000000000000000000000000000000000000000000081526004016113d590613d62565b60405180910390fd5b6113e781611b01565b50565b60007f780e9d63000000000000000000000000000000000000000000000000000000007bffffffffffffffffffffffffffffffffffffffffffffffffffffffff1916827bffffffffffffffffffffffffffffffffffffffffffffffffffffffff1916148061145d575061145c82611f93565b5b9050919050565b61146d81611df2565b6114ac576040517f08c379a00000000000000000000000000000000000000000000000000000000081526004016114a390613afd565b60405180910390fd5b50565b600033905090565b816004600083815260200190815260200160002060006101000a81548173ffffffffffffffffffffffffffffffffffffffff021916908373ffffffffffffffffffffffffffffffffffffffff160217905550808273ffffffffffffffffffffffffffffffffffffffff1661152a83610c87565b73ffffffffffffffffffffffffffffffffffffffff167f8c5be1e5ebec7d5bd14f71427d1e84f3dd0314c0f7b2291e5b200ac8c7c3b92560405160405180910390a45050565b60008061157c83610c87565b90508073ffffffffffffffffffffffffffffffffffffffff168473ffffffffffffffffffffffffffffffffffffffff1614806115be57506115bd81856112d3565b5b806115fc57508373ffffffffffffffffffffffffffffffffffffffff166115e4846107fe565b73ffffffffffffffffffffffffffffffffffffffff16145b91505092915050565b8273ffffffffffffffffffffffffffffffffffffffff1661162582610c87565b73ffffffffffffffffffffffffffffffffffffffff161461167b576040517f08c379a000000000000000000000000000000000000000000000000000000000815260040161167290613df4565b60405180910390fd5b600073ffffffffffffffffffffffffffffffffffffffff168273ffffffffffffffffffffffffffffffffffffffff16036116ea576040517f08c379a00000000000000000000000000000000000000000000000000000000081526004016116e190613e86565b60405180910390fd5b6116f78383836001612075565b8273ffffffffffffffffffffffffffffffffffffffff1661171782610c87565b73ffffffffffffffffffffffffffffffffffffffff161461176d576040517f08c379a000000000000000000000000000000000000000000000000000000000815260040161176490613df4565b60405180910390fd5b6004600082815260200190815260200160002060006101000a81549073ffffffffffffffffffffffffffffffffffffffff02191690556001600360008573ffffffffffffffffffffffffffffffffffffffff1673ffffffffffffffffffffffffffffffffffffffff168152602001908152602001600020600082825403925050819055506001600360008473ffffffffffffffffffffffffffffffffffffffff1673ffffffffffffffffffffffffffffffffffffffff16815260200190815260200160002060008282540192505081905550816002600083815260200190815260200160002060006101000a81548173ffffffffffffffffffffffffffffffffffffffff021916908373ffffffffffffffffffffffffffffffffffffffff160217905550808273ffffffffffffffffffffffffffffffffffffffff168473ffffffffffffffffffffffffffffffffffffffff167fddf252ad1be2c89b69c2b068fc378daa952ba7f163c4a11628f55a4df523b3ef60405160405180910390a46118f98383836001612087565b505050565b6119066114af565b73ffffffffffffffffffffffffffffffffffffffff16611924610f8d565b73ffffffffffffffffffffffffffffffffffffffff161461197a576040517f08c379a000000000000000000000000000000000000000000000000000000000815260040161197190613ef2565b60405180910390fd5b565b61198461208d565b6000600b60146101000a81548160ff0219169083151502179055507f5db9ee0a495bf2e6ff9c91a7834c1ba4fdd244a5e8aa4e537bd38aeae4b073aa6119c86114af565b6040516119d59190612e64565b60405180910390a1565b6119e7610c70565b15611a27576040517f08c379a0000000000000000000000000000000000000000000000000000000008152600401611a1e90613f5e565b60405180910390fd5b565b6002600c5403611a6e576040517f08c379a0000000000000000000000000000000000000000000000000000000008152600401611a6590613fca565b60405180910390fd5b6002600c81905550565b600081600001549050919050565b6001816000016000828254019250508190555050565b611ab68282604051806020016040528060008152506120d6565b5050565b6001600c81905550565b60006002600083815260200190815260200160002060009054906101000a900473ffffffffffffffffffffffffffffffffffffffff169050919050565b6000600b60009054906101000a900473ffffffffffffffffffffffffffffffffffffffff16905081600b60006101000a81548173ffffffffffffffffffffffffffffffffffffffff021916908373ffffffffffffffffffffffffffffffffffffffff1602179055508173ffffffffffffffffffffffffffffffffffffffff168173ffffffffffffffffffffffffffffffffffffffff167f8be0079c531659141344cd1fd0a4f28419497f9722a3daafe3b4186f6b6457e060405160405180910390a35050565b611bcf6119df565b6001600b60146101000a81548160ff0219169083151502179055507f62e78cea01bee320cd4e420270b5ea74000d11b0c9f74754ebdbfc544b05a258611c136114af565b604051611c209190612e64565b60405180910390a1565b8173ffffffffffffffffffffffffffffffffffffffff168373ffffffffffffffffffffffffffffffffffffffff1603611c98576040517f08c379a0000000000000000000000000000000000000000000000000000000008152600401611c8f90614036565b60405180910390fd5b80600560008573ffffffffffffffffffffffffffffffffffffffff1673ffffffffffffffffffffffffffffffffffffffff16815260200190815260200160002060008473ffffffffffffffffffffffffffffffffffffffff1673ffffffffffffffffffffffffffffffffffffffff16815260200190815260200160002060006101000a81548160ff0219169083151502179055508173ffffffffffffffffffffffffffffffffffffffff168373ffffffffffffffffffffffffffffffffffffffff167f17307eab39ab6107e8899845ad3d59bd9653f200f220920489ca2b5937696c3183604051611d899190612cf3565b60405180910390a3505050565b611da1848484611605565b611dad84848484612131565b611dec576040517f08c379a0000000000000000000000000000000000000000000000000000000008152600401611de3906140c8565b60405180910390fd5b50505050565b60008073ffffffffffffffffffffffffffffffffffffffff16611e1483611ac4565b73ffffffffffffffffffffffffffffffffffffffff1614159050919050565b6060600f8054611e42906133b5565b80601f0160208091040260200160405190810160405280929190818152602001828054611e6e906133b5565b8015611ebb5780601f10611e9057610100808354040283529160200191611ebb565b820191906000526020600020905b815481529060010190602001808311611e9e57829003601f168201915b5050505050905090565b606060006001611ed4846122b8565b01905060008167ffffffffffffffff811115611ef357611ef2613198565b5b6040519080825280601f01601f191660200182016040528015611f255781602001600182028036833780820191505090505b509050600082602001820190505b600115611f88578080600190039150507f3031323334353637383961626364656600000000000000000000000000000000600a86061a8153600a8581611f7c57611f7b6140e8565b5b04945060008503611f33575b819350505050919050565b60007f80ac58cd000000000000000000000000000000000000000000000000000000007bffffffffffffffffffffffffffffffffffffffffffffffffffffffff1916827bffffffffffffffffffffffffffffffffffffffffffffffffffffffff1916148061205e57507f5b5e139f000000000000000000000000000000000000000000000000000000007bffffffffffffffffffffffffffffffffffffffffffffffffffffffff1916827bffffffffffffffffffffffffffffffffffffffffffffffffffffffff1916145b8061206e575061206d8261240b565b5b9050919050565b61208184848484612475565b50505050565b50505050565b612095610c70565b6120d4576040517f08c379a00000000000000000000000000000000000000000000000000000000081526004016120cb90614163565b60405180910390fd5b565b6120e083836125d3565b6120ed6000848484612131565b61212c576040517f08c379a0000000000000000000000000000000000000000000000000000000008152600401612123906140c8565b60405180910390fd5b505050565b60006121528473ffffffffffffffffffffffffffffffffffffffff166127f0565b156122ab578373ffffffffffffffffffffffffffffffffffffffff1663150b7a0261217b6114af565b8786866040518563ffffffff1660e01b815260040161219d94939291906141d8565b6020604051808303816000875af19250505080156121d957506040513d601f19601f820116820180604052508101906121d69190614239565b60015b61225b573d8060008114612209576040519150601f19603f3d011682016040523d82523d6000602084013e61220e565b606091505b506000815103612253576040517f08c379a000000000000000000000000000000000000000000000000000000000815260040161224a906140c8565b60405180910390fd5b805181602001fd5b63150b7a0260e01b7bffffffffffffffffffffffffffffffffffffffffffffffffffffffff1916817bffffffffffffffffffffffffffffffffffffffffffffffffffffffff1916149150506122b0565b600190505b949350505050565b600080600090507a184f03e93ff9f4daa797ed6e38ed64bf6a1f0100000000000000008310612316577a184f03e93ff9f4daa797ed6e38ed64bf6a1f010000000000000000838161230c5761230b6140e8565b5b0492506040810190505b6d04ee2d6d415b85acef81000000008310612353576d04ee2d6d415b85acef81000000008381612349576123486140e8565b5b0492506020810190505b662386f26fc10000831061238257662386f26fc100008381612378576123776140e8565b5b0492506010810190505b6305f5e10083106123ab576305f5e10083816123a1576123a06140e8565b5b0492506008810190505b61271083106123d05761271083816123c6576123c56140e8565b5b0492506004810190505b606483106123f357606483816123e9576123e86140e8565b5b0492506002810190505b600a8310612402576001810190505b80915050919050565b60007f01ffc9a7000000000000000000000000000000000000000000000000000000007bffffffffffffffffffffffffffffffffffffffffffffffffffffffff1916827bffffffffffffffffffffffffffffffffffffffffffffffffffffffff1916149050919050565b61248184848484612813565b60018111156124c5576040517f08c379a00000000000000000000000000000000000000000000000000000000081526004016124bc906142d8565b60405180910390fd5b6000829050600073ffffffffffffffffffffffffffffffffffffffff168573ffffffffffffffffffffffffffffffffffffffff160361250c5761250781612939565b61254b565b8373ffffffffffffffffffffffffffffffffffffffff168573ffffffffffffffffffffffffffffffffffffffff161461254a576125498582612982565b5b5b600073ffffffffffffffffffffffffffffffffffffffff168473ffffffffffffffffffffffffffffffffffffffff160361258d5761258881612aef565b6125cc565b8473ffffffffffffffffffffffffffffffffffffffff168473ffffffffffffffffffffffffffffffffffffffff16146125cb576125ca8482612bc0565b5b5b5050505050565b600073ffffffffffffffffffffffffffffffffffffffff168273ffffffffffffffffffffffffffffffffffffffff1603612642576040517f08c379a000000000000000000000000000000000000000000000000000000000815260040161263990614344565b60405180910390fd5b61264b81611df2565b1561268b576040517f08c379a0000000000000000000000000000000000000000000000000000000008152600401612682906143b0565b60405180910390fd5b612699600083836001612075565b6126a281611df2565b156126e2576040517f08c379a00000000000000000000000000000000000000000000000000000000081526004016126d9906143b0565b60405180910390fd5b6001600360008473ffffffffffffffffffffffffffffffffffffffff1673ffffffffffffffffffffffffffffffffffffffff16815260200190815260200160002060008282540192505081905550816002600083815260200190815260200160002060006101000a81548173ffffffffffffffffffffffffffffffffffffffff021916908373ffffffffffffffffffffffffffffffffffffffff160217905550808273ffffffffffffffffffffffffffffffffffffffff16600073ffffffffffffffffffffffffffffffffffffffff167fddf252ad1be2c89b69c2b068fc378daa952ba7f163c4a11628f55a4df523b3ef60405160405180910390a46127ec600083836001612087565b5050565b6000808273ffffffffffffffffffffffffffffffffffffffff163b119050919050565b600181111561293357600073ffffffffffffffffffffffffffffffffffffffff168473ffffffffffffffffffffffffffffffffffffffff16146128a75780600360008673ffffffffffffffffffffffffffffffffffffffff1673ffffffffffffffffffffffffffffffffffffffff168152602001908152602001600020600082825461289f91906143d0565b925050819055505b600073ffffffffffffffffffffffffffffffffffffffff168373ffffffffffffffffffffffffffffffffffffffff16146129325780600360008573ffffffffffffffffffffffffffffffffffffffff1673ffffffffffffffffffffffffffffffffffffffff168152602001908152602001600020600082825461292a9190613a11565b925050819055505b5b50505050565b600980549050600a600083815260200190815260200160002081905550600981908060018154018082558091505060019003906000526020600020016000909190919091505550565b6000600161298f84610d3e565b61299991906143d0565b9050600060086000848152602001908152602001600020549050818114612a7e576000600760008673ffffffffffffffffffffffffffffffffffffffff1673ffffffffffffffffffffffffffffffffffffffff168152602001908152602001600020600084815260200190815260200160002054905080600760008773ffffffffffffffffffffffffffffffffffffffff1673ffffffffffffffffffffffffffffffffffffffff168152602001908152602001600020600084815260200190815260200160002081905550816008600083815260200190815260200160002081905550505b6008600084815260200190815260200160002060009055600760008573ffffffffffffffffffffffffffffffffffffffff1673ffffffffffffffffffffffffffffffffffffffff16815260200190815260200160002060008381526020019081526020016000206000905550505050565b60006001600980549050612b0391906143d0565b90506000600a6000848152602001908152602001600020549050600060098381548110612b3357612b32613947565b5b906000526020600020015490508060098381548110612b5557612b54613947565b5b906000526020600020018190555081600a600083815260200190815260200160002081905550600a6000858152602001908152602001600020600090556009805480612ba457612ba3614404565b5b6001900381819060005260206000200160009055905550505050565b6000612bcb83610d3e565b905081600760008573ffffffffffffffffffffffffffffffffffffffff1673ffffffffffffffffffffffffffffffffffffffff168152602001908152602001600020600083815260200190815260200160002081905550806008600084815260200190815260200160002081905550505050565b6000604051905090565b600080fd5b600080fd5b60007fffffffff0000000000000000000000000000000000000000000000000000000082169050919050565b612c8881612c53565b8114612c9357600080fd5b50565b600081359050612ca581612c7f565b92915050565b600060208284031215612cc157612cc0612c49565b5b6000612ccf84828501612c96565b91505092915050565b60008115159050919050565b612ced81612cd8565b82525050565b6000602082019050612d086000830184612ce4565b92915050565b600081519050919050565b600082825260208201905092915050565b60005b83811015612d48578082015181840152602081019050612d2d565b60008484015250505050565b6000601f19601f8301169050919050565b6000612d7082612d0e565b612d7a8185612d19565b9350612d8a818560208601612d2a565b612d9381612d54565b840191505092915050565b60006020820190508181036000830152612db88184612d65565b905092915050565b6000819050919050565b612dd381612dc0565b8114612dde57600080fd5b50565b600081359050612df081612dca565b92915050565b600060208284031215612e0c57612e0b612c49565b5b6000612e1a84828501612de1565b91505092915050565b600073ffffffffffffffffffffffffffffffffffffffff82169050919050565b6000612e4e82612e23565b9050919050565b612e5e81612e43565b82525050565b6000602082019050612e796000830184612e55565b92915050565b612e8881612e43565b8114612e9357600080fd5b50565b600081359050612ea581612e7f565b92915050565b60008060408385031215612ec257612ec1612c49565b5b6000612ed085828601612e96565b9250506020612ee185828601612de1565b9150509250929050565b612ef481612dc0565b82525050565b6000602082019050612f0f6000830184612eeb565b92915050565b600080600060608486031215612f2e57612f2d612c49565b5b6000612f3c86828701612e96565b9350506020612f4d86828701612e96565b9250506040612f5e86828701612de1565b9150509250925092565b600080fd5b600080fd5b600080fd5b60008083601f840112612f8d57612f8c612f68565b5b8235905067ffffffffffffffff811115612faa57612fa9612f6d565b5b602083019150836001820283011115612fc657612fc5612f72565b5b9250929050565b60008060208385031215612fe457612fe3612c49565b5b600083013567ffffffffffffffff81111561300257613001612c4e565b5b61300e85828601612f77565b92509250509250929050565b6000602082840312156130305761302f612c49565b5b600061303e84828501612e96565b91505092915050565b61305081612cd8565b811461305b57600080fd5b50565b60008135905061306d81613047565b92915050565b6000806040838503121561308a57613089612c49565b5b600061309885828601612e96565b92505060206130a98582860161305e565b9150509250929050565b600081519050919050565b600082825260208201905092915050565b6000819050602082019050919050565b6130e881612dc0565b82525050565b60006130fa83836130df565b60208301905092915050565b6000602082019050919050565b600061311e826130b3565b61312881856130be565b9350613133836130cf565b8060005b8381101561316457815161314b88826130ee565b975061315683613106565b925050600181019050613137565b5085935050505092915050565b6000602082019050818103600083015261318b8184613113565b905092915050565b600080fd5b7f4e487b7100000000000000000000000000000000000000000000000000000000600052604160045260246000fd5b6131d082612d54565b810181811067ffffffffffffffff821117156131ef576131ee613198565b5b80604052505050565b6000613202612c3f565b905061320e82826131c7565b919050565b600067ffffffffffffffff82111561322e5761322d613198565b5b61323782612d54565b9050602081019050919050565b82818337600083830152505050565b600061326661326184613213565b6131f8565b90508281526020810184848401111561328257613281613193565b5b61328d848285613244565b509392505050565b600082601f8301126132aa576132a9612f68565b5b81356132ba848260208601613253565b91505092915050565b600080600080608085870312156132dd576132dc612c49565b5b60006132eb87828801612e96565b94505060206132fc87828801612e96565b935050604061330d87828801612de1565b925050606085013567ffffffffffffffff81111561332e5761332d612c4e565b5b61333a87828801613295565b91505092959194509250565b6000806040838503121561335d5761335c612c49565b5b600061336b85828601612e96565b925050602061337c85828601612e96565b9150509250929050565b7f4e487b7100000000000000000000000000000000000000000000000000000000600052602260045260246000fd5b600060028204905060018216806133cd57607f821691505b6020821081036133e0576133df613386565b5b50919050565b7f4552433732313a20617070726f76616c20746f2063757272656e74206f776e6560008201527f7200000000000000000000000000000000000000000000000000000000000000602082015250565b6000613442602183612d19565b915061344d826133e6565b604082019050919050565b6000602082019050818103600083015261347181613435565b9050919050565b7f4552433732313a20617070726f76652063616c6c6572206973206e6f7420746f60008201527f6b656e206f776e6572206f7220617070726f76656420666f7220616c6c000000602082015250565b60006134d4603d83612d19565b91506134df82613478565b604082019050919050565b60006020820190508181036000830152613503816134c7565b9050919050565b7f4552433732313a2063616c6c6572206973206e6f7420746f6b656e206f776e6560008201527f72206f7220617070726f76656400000000000000000000000000000000000000602082015250565b6000613566602d83612d19565b91506135718261350a565b604082019050919050565b6000602082019050818103600083015261359581613559565b9050919050565b7f455243373231456e756d657261626c653a206f776e657220696e646578206f7560008201527f74206f6620626f756e6473000000000000000000000000000000000000000000602082015250565b60006135f8602b83612d19565b91506136038261359c565b604082019050919050565b60006020820190508181036000830152613627816135eb565b9050919050565b600082905092915050565b60008190508160005260206000209050919050565b60006020601f8301049050919050565b600082821b905092915050565b60006008830261369b7fffffffffffffffffffffffffffffffffffffffffffffffffffffffffffffffff8261365e565b6136a5868361365e565b95508019841693508086168417925050509392505050565b6000819050919050565b60006136e26136dd6136d884612dc0565b6136bd565b612dc0565b9050919050565b6000819050919050565b6136fc836136c7565b613710613708826136e9565b84845461366b565b825550505050565b600090565b613725613718565b6137308184846136f3565b505050565b5b818110156137545761374960008261371d565b600181019050613736565b5050565b601f8211156137995761376a81613639565b6137738461364e565b81016020851015613782578190505b61379661378e8561364e565b830182613735565b50505b505050565b600082821c905092915050565b60006137bc6000198460080261379e565b1980831691505092915050565b60006137d583836137ab565b9150826002028217905092915050565b6137ef838361362e565b67ffffffffffffffff81111561380857613807613198565b5b61381282546133b5565b61381d828285613758565b6000601f83116001811461384c576000841561383a578287013590505b61384485826137c9565b8655506138ac565b601f19841661385a86613639565b60005b828110156138825784890135825560018201915060208501945060208101905061385d565b8683101561389f578489013561389b601f8916826137ab565b8355505b6001600288020188555050505b50505050505050565b7f455243373231456e756d657261626c653a20676c6f62616c20696e646578206f60008201527f7574206f6620626f756e64730000000000000000000000000000000000000000602082015250565b6000613911602c83612d19565b915061391c826138b5565b604082019050919050565b6000602082019050818103600083015261394081613904565b9050919050565b7f4e487b7100000000000000000000000000000000000000000000000000000000600052603260045260246000fd5b7f4e6f7420656e6f756768206d6f6e65792073656e740000000000000000000000600082015250565b60006139ac601583612d19565b91506139b782613976565b602082019050919050565b600060208201905081810360008301526139db8161399f565b9050919050565b7f4e487b7100000000000000000000000000000000000000000000000000000000600052601160045260246000fd5b6000613a1c82612dc0565b9150613a2783612dc0565b9250828201905080821115613a3f57613a3e6139e2565b5b92915050565b7f4e6f7420656e6f75676820746f6b656e2072656d61696e696e67000000000000600082015250565b6000613a7b601a83612d19565b9150613a8682613a45565b602082019050919050565b60006020820190508181036000830152613aaa81613a6e565b9050919050565b7f4552433732313a20696e76616c696420746f6b656e2049440000000000000000600082015250565b6000613ae7601883612d19565b9150613af282613ab1565b602082019050919050565b60006020820190508181036000830152613b1681613ada565b9050919050565b7f4552433732313a2061646472657373207a65726f206973206e6f74206120766160008201527f6c6964206f776e65720000000000000000000000000000000000000000000000602082015250565b6000613b79602983612d19565b9150613b8482613b1d565b604082019050919050565b60006020820190508181036000830152613ba881613b6c565b9050919050565b6000613bba82612dc0565b9150613bc583612dc0565b9250828202613bd381612dc0565b91508282048414831517613bea57613be96139e2565b5b5092915050565b6000613bfc82612dc0565b91507fffffffffffffffffffffffffffffffffffffffffffffffffffffffffffffffff8203613c2e57613c2d6139e2565b5b600182019050919050565b600081905092915050565b6000613c4f82612d0e565b613c598185613c39565b9350613c69818560208601612d2a565b80840191505092915050565b7f2e6a736f6e000000000000000000000000000000000000000000000000000000600082015250565b6000613cab600583613c39565b9150613cb682613c75565b600582019050919050565b6000613ccd8285613c44565b9150613cd98284613c44565b9150613ce482613c9e565b91508190509392505050565b7f4f776e61626c653a206e6577206f776e657220697320746865207a65726f206160008201527f6464726573730000000000000000000000000000000000000000000000000000602082015250565b6000613d4c602683612d19565b9150613d5782613cf0565b604082019050919050565b60006020820190508181036000830152613d7b81613d3f565b9050919050565b7f4552433732313a207472616e736665722066726f6d20696e636f72726563742060008201527f6f776e6572000000000000000000000000000000000000000000000000000000602082015250565b6000613dde602583612d19565b9150613de982613d82565b604082019050919050565b60006020820190508181036000830152613e0d81613dd1565b9050919050565b7f4552433732313a207472616e7366657220746f20746865207a65726f2061646460008201527f7265737300000000000000000000000000000000000000000000000000000000602082015250565b6000613e70602483612d19565b9150613e7b82613e14565b604082019050919050565b60006020820190508181036000830152613e9f81613e63565b9050919050565b7f4f776e61626c653a2063616c6c6572206973206e6f7420746865206f776e6572600082015250565b6000613edc602083612d19565b9150613ee782613ea6565b602082019050919050565b60006020820190508181036000830152613f0b81613ecf565b9050919050565b7f5061757361626c653a2070617573656400000000000000000000000000000000600082015250565b6000613f48601083612d19565b9150613f5382613f12565b602082019050919050565b60006020820190508181036000830152613f7781613f3b565b9050919050565b7f5265656e7472616e637947756172643a207265656e7472616e742063616c6c00600082015250565b6000613fb4601f83612d19565b9150613fbf82613f7e565b602082019050919050565b60006020820190508181036000830152613fe381613fa7565b9050919050565b7f4552433732313a20617070726f766520746f2063616c6c657200000000000000600082015250565b6000614020601983612d19565b915061402b82613fea565b602082019050919050565b6000602082019050818103600083015261404f81614013565b9050919050565b7f4552433732313a207472616e7366657220746f206e6f6e20455243373231526560008201527f63656976657220696d706c656d656e7465720000000000000000000000000000602082015250565b60006140b2603283612d19565b91506140bd82614056565b604082019050919050565b600060208201905081810360008301526140e1816140a5565b9050919050565b7f4e487b7100000000000000000000000000000000000000000000000000000000600052601260045260246000fd5b7f5061757361626c653a206e6f7420706175736564000000000000000000000000600082015250565b600061414d601483612d19565b915061415882614117565b602082019050919050565b6000602082019050818103600083015261417c81614140565b9050919050565b600081519050919050565b600082825260208201905092915050565b60006141aa82614183565b6141b4818561418e565b93506141c4818560208601612d2a565b6141cd81612d54565b840191505092915050565b60006080820190506141ed6000830187612e55565b6141fa6020830186612e55565b6142076040830185612eeb565b8181036060830152614219818461419f565b905095945050505050565b60008151905061423381612c7f565b92915050565b60006020828403121561424f5761424e612c49565b5b600061425d84828501614224565b91505092915050565b7f455243373231456e756d657261626c653a20636f6e736563757469766520747260008201527f616e7366657273206e6f7420737570706f727465640000000000000000000000602082015250565b60006142c2603583612d19565b91506142cd82614266565b604082019050919050565b600060208201905081810360008301526142f1816142b5565b9050919050565b7f4552433732313a206d696e7420746f20746865207a65726f2061646472657373600082015250565b600061432e602083612d19565b9150614339826142f8565b602082019050919050565b6000602082019050818103600083015261435d81614321565b9050919050565b7f4552433732313a20746f6b656e20616c7265616479206d696e74656400000000600082015250565b600061439a601c83612d19565b91506143a582614364565b602082019050919050565b600060208201905081810360008301526143c98161438d565b9050919050565b60006143db82612dc0565b91506143e683612dc0565b92508282039050818111156143fe576143fd6139e2565b5b92915050565b7f4e487b7100000000000000000000000000000000000000000000000000000000600052603160045260246000fdfea26469706673582212204fb0933e392ae1af1fe14681aaf72a64cde8b6b0e37f7947a4a06b526c7a42b364736f6c63430008110033697066733a2f2f516d544e537451426d7338684b45554c734a73484747517134567937485568386373367a78515a4d554e4c6f72592f",
  "linkReferences": {},
  "deployedLinkReferences": {}
}