{
  "_format": "hh-sol-artifact-1",
  "contractName": "NFTStaking",
  "sourceName": "contracts/Staking.sol",
  "abi": [
    {
      "inputs": [],
      "stateMutability": "nonpayable",
      "type": "constructor"
    },
    {
      "anonymous": false,
      "inputs": [
        {
          "indexed": false,
          "internalType": "uint256",
          "name": "value",
          "type": "uint256"
        },
        {
          "indexed": true,
          "internalType": "address",
          "name": "owner",
          "type": "address"
        }
      ],
      "name": "ClaimEarnings",
      "type": "event"
    },
    {
      "anonymous": false,
      "inputs": [
        {
          "indexed": true,
          "internalType": "address",
          "name": "previousOwner",
          "type": "address"
        },
        {
          "indexed": true,
          "internalType": "address",
          "name": "newOwner",
          "type": "address"
        }
      ],
      "name": "OwnershipTransferred",
      "type": "event"
    },
    {
      "anonymous": false,
      "inputs": [
        {
          "indexed": false,
          "internalType": "uint256",
          "name": "tokenID",
          "type": "uint256"
        },
        {
          "indexed": false,
          "internalType": "uint256",
          "name": "stakingTime",
          "type": "uint256"
        },
        {
          "indexed": true,
          "internalType": "address",
          "name": "owner",
          "type": "address"
        }
      ],
      "name": "Staked",
      "type": "event"
    },
    {
      "anonymous": false,
      "inputs": [
        {
          "indexed": false,
          "internalType": "uint256",
          "name": "tokenID",
          "type": "uint256"
        },
        {
          "indexed": false,
          "internalType": "uint256",
          "name": "unstakingTime",
          "type": "uint256"
        },
        {
          "indexed": true,
          "internalType": "address",
          "name": "owner",
          "type": "address"
        }
      ],
      "name": "UnStaked",
      "type": "event"
    },
    {
      "inputs": [
        {
          "internalType": "uint256",
          "name": "_tokenID",
          "type": "uint256"
        }
      ],
      "name": "claim",
      "outputs": [],
      "stateMutability": "nonpayable",
      "type": "function"
    },
    {
      "inputs": [
        {
          "internalType": "uint256",
          "name": "_tokenID",
          "type": "uint256"
        }
      ],
      "name": "getPendingRewards",
      "outputs": [
        {
          "internalType": "uint256",
          "name": "",
          "type": "uint256"
        }
      ],
      "stateMutability": "view",
      "type": "function"
    },
    {
      "inputs": [],
      "name": "getStakedTokens",
      "outputs": [
        {
          "internalType": "uint256[]",
          "name": "",
          "type": "uint256[]"
        }
      ],
      "stateMutability": "view",
      "type": "function"
    },
    {
      "inputs": [
        {
          "internalType": "uint256",
          "name": "",
          "type": "uint256"
        }
      ],
      "name": "nftsStaked",
      "outputs": [
        {
          "internalType": "uint256",
          "name": "tokenID",
          "type": "uint256"
        },
        {
          "internalType": "uint256",
          "name": "stakingTime",
          "type": "uint256"
        },
        {
          "internalType": "address",
          "name": "owner",
          "type": "address"
        }
      ],
      "stateMutability": "view",
      "type": "function"
    },
    {
      "inputs": [
        {
          "internalType": "address",
          "name": "operator",
          "type": "address"
        },
        {
          "internalType": "address",
          "name": "from",
          "type": "address"
        },
        {
          "internalType": "uint256",
          "name": "id",
          "type": "uint256"
        },
        {
          "internalType": "bytes",
          "name": "data",
          "type": "bytes"
        }
      ],
      "name": "onERC721Received",
      "outputs": [
        {
          "internalType": "bytes4",
          "name": "",
          "type": "bytes4"
        }
      ],
      "stateMutability": "nonpayable",
      "type": "function"
    },
    {
      "inputs": [],
      "name": "owner",
      "outputs": [
        {
          "internalType": "address",
          "name": "",
          "type": "address"
        }
      ],
      "stateMutability": "view",
      "type": "function"
    },
    {
      "inputs": [],
      "name": "renounceOwnership",
      "outputs": [],
      "stateMutability": "nonpayable",
      "type": "function"
    },
    {
      "inputs": [],
      "name": "rewardTime",
      "outputs": [
        {
          "internalType": "uint256",
          "name": "",
          "type": "uint256"
        }
      ],
      "stateMutability": "view",
      "type": "function"
    },
    {
      "inputs": [
        {
          "internalType": "contract MyAwesomeNFT",
          "name": "_nft",
          "type": "address"
        }
      ],
      "name": "setNft",
      "outputs": [],
      "stateMutability": "nonpayable",
      "type": "function"
    },
    {
      "inputs": [
        {
          "internalType": "contract RewardToken",
          "name": "_token",
          "type": "address"
        }
      ],
      "name": "setRewardToken",
      "outputs": [],
      "stateMutability": "nonpayable",
      "type": "function"
    },
    {
      "inputs": [
        {
          "internalType": "uint256",
          "name": "_tokenID",
          "type": "uint256"
        }
      ],
      "name": "stake",
      "outputs": [],
      "stateMutability": "nonpayable",
      "type": "function"
    },
    {
      "inputs": [],
      "name": "totalStaking",
      "outputs": [
        {
          "internalType": "uint256",
          "name": "",
          "type": "uint256"
        }
      ],
      "stateMutability": "view",
      "type": "function"
    },
    {
      "inputs": [
        {
          "internalType": "address",
          "name": "newOwner",
          "type": "address"
        }
      ],
      "name": "transferOwnership",
      "outputs": [],
      "stateMutability": "nonpayable",
      "type": "function"
    },
    {
      "inputs": [
        {
          "internalType": "uint256",
          "name": "_tokenID",
          "type": "uint256"
        }
      ],
      "name": "unstake",
      "outputs": [],
      "stateMutability": "nonpayable",
      "type": "function"
    }
  ],
  "bytecode": "0x6080604052600a60055534801561001557600080fd5b5061003261002761003760201b60201c565b61003f60201b60201c565b610103565b600033905090565b60008060009054906101000a900473ffffffffffffffffffffffffffffffffffffffff169050816000806101000a81548173ffffffffffffffffffffffffffffffffffffffff021916908373ffffffffffffffffffffffffffffffffffffffff1602179055508173ffffffffffffffffffffffffffffffffffffffff168173ffffffffffffffffffffffffffffffffffffffff167f8be0079c531659141344cd1fd0a4f28419497f9722a3daafe3b4186f6b6457e060405160405180910390a35050565b611ad4806101126000396000f3fe608060405234801561001057600080fd5b50600436106100ea5760003560e01c80638da5cb5b1161008c578063a694fc3a11610066578063a694fc3a14610227578063f2fde38b14610243578063f3c133871461025f578063f9f87c181461027b576100ea565b80638da5cb5b146101b957806391b66fd5146101d757806397c0ffbf146101f5576100ea565b80632e17de78116100c85780632e17de781461015b578063379607f514610177578063715018a6146101935780638aee81271461019d576100ea565b80630e469a7c146100ef578063150b7a021461010d578063165defa41461013d575b600080fd5b6100f76102ab565b604051610104919061114a565b60405180910390f35b61012760048036038101906101229190611265565b6104f7565b6040516101349190611328565b60405180910390f35b61014561050c565b6040516101529190611352565b60405180910390f35b6101756004803603810190610170919061136d565b610512565b005b610191600480360381019061018c919061136d565b6105cd565b005b61019b6105d9565b005b6101b760048036038101906101b291906113d8565b6105ed565b005b6101c1610639565b6040516101ce9190611414565b60405180910390f35b6101df610662565b6040516101ec9190611352565b60405180910390f35b61020f600480360381019061020a919061136d565b610668565b60405161021e9392919061142f565b60405180910390f35b610241600480360381019061023c919061136d565b6106b2565b005b61025d60048036038101906102589190611466565b6109ba565b005b610279600480360381019061027491906114d1565b610a3d565b005b6102956004803603810190610290919061136d565b610a89565b6040516102a29190611352565b60405180910390f35b60606000600260009054906101000a900473ffffffffffffffffffffffffffffffffffffffff1673ffffffffffffffffffffffffffffffffffffffff1663d5abeb016040518163ffffffff1660e01b8152600401602060405180830381865afa15801561031c573d6000803e3d6000fd5b505050506040513d601f19601f820116820180604052508101906103409190611513565b905060008167ffffffffffffffff81111561035e5761035d611540565b5b60405190808252806020026020018201604052801561038c5781602001602082028036833780820191505090505b5090506000805b83811015610446573373ffffffffffffffffffffffffffffffffffffffff166003600083815260200190815260200160002060020160009054906101000a900473ffffffffffffffffffffffffffffffffffffffff1673ffffffffffffffffffffffffffffffffffffffff160361043357808383815181106104185761041761156f565b5b602002602001018181525050818061042f906115cd565b9250505b808061043e906115cd565b915050610393565b5060008167ffffffffffffffff81111561046357610462611540565b5b6040519080825280602002602001820160405280156104915781602001602082028036833780820191505090505b50905060005b828110156104ec578381815181106104b2576104b161156f565b5b60200260200101518282815181106104cd576104cc61156f565b5b60200260200101818152505080806104e4906115cd565b915050610497565b508094505050505090565b600063150b7a0260e01b905095945050505050565b60045481565b803373ffffffffffffffffffffffffffffffffffffffff166003600083815260200190815260200160002060020160009054906101000a900473ffffffffffffffffffffffffffffffffffffffff1673ffffffffffffffffffffffffffffffffffffffff16146105b7576040517f08c379a00000000000000000000000000000000000000000000000000000000081526004016105ae90611672565b60405180910390fd5b6105c082610b73565b6105c982610d49565b5050565b6105d681610b73565b50565b6105e1610f38565b6105eb6000610fb6565b565b6105f5610f38565b80600160006101000a81548173ffffffffffffffffffffffffffffffffffffffff021916908373ffffffffffffffffffffffffffffffffffffffff16021790555050565b60008060009054906101000a900473ffffffffffffffffffffffffffffffffffffffff16905090565b60055481565b60036020528060005260406000206000915090508060000154908060010154908060020160009054906101000a900473ffffffffffffffffffffffffffffffffffffffff16905083565b803373ffffffffffffffffffffffffffffffffffffffff16600260009054906101000a900473ffffffffffffffffffffffffffffffffffffffff1673ffffffffffffffffffffffffffffffffffffffff16636352211e836040518263ffffffff1660e01b81526004016107259190611352565b602060405180830381865afa158015610742573d6000803e3d6000fd5b505050506040513d601f19601f8201168201806040525081019061076691906116a7565b73ffffffffffffffffffffffffffffffffffffffff16146107bc576040517f08c379a00000000000000000000000000000000000000000000000000000000081526004016107b390611720565b60405180910390fd5b6000600360008481526020019081526020016000206001015414610815576040517f08c379a000000000000000000000000000000000000000000000000000000000815260040161080c9061178c565b60405180910390fd5b600060405180606001604052808481526020014281526020013373ffffffffffffffffffffffffffffffffffffffff1681525090508060036000858152602001908152602001600020600082015181600001556020820151816001015560408201518160020160006101000a81548173ffffffffffffffffffffffffffffffffffffffff021916908373ffffffffffffffffffffffffffffffffffffffff160217905550905050600460008154809291906108cf906115cd565b91905055503373ffffffffffffffffffffffffffffffffffffffff167f1b52f0db6b5f755caa8f232eebe353a340637e6c55969d84b3ee0cee945aa433844260405161091c9291906117ac565b60405180910390a2600260009054906101000a900473ffffffffffffffffffffffffffffffffffffffff1673ffffffffffffffffffffffffffffffffffffffff166342842e0e3330866040518463ffffffff1660e01b8152600401610983939291906117d5565b600060405180830381600087803b15801561099d57600080fd5b505af11580156109b1573d6000803e3d6000fd5b50505050505050565b6109c2610f38565b600073ffffffffffffffffffffffffffffffffffffffff168173ffffffffffffffffffffffffffffffffffffffff1603610a31576040517f08c379a0000000000000000000000000000000000000000000000000000000008152600401610a289061187e565b60405180910390fd5b610a3a81610fb6565b50565b610a45610f38565b80600260006101000a81548173ffffffffffffffffffffffffffffffffffffffff021916908373ffffffffffffffffffffffffffffffffffffffff16021790555050565b6000813373ffffffffffffffffffffffffffffffffffffffff166003600083815260200190815260200160002060020160009054906101000a900473ffffffffffffffffffffffffffffffffffffffff1673ffffffffffffffffffffffffffffffffffffffff1614610b30576040517f08c379a0000000000000000000000000000000000000000000000000000000008152600401610b2790611672565b60405180910390fd5b6001600554600360008681526020019081526020016000206001015442610b57919061189e565b610b6191906118d2565b610b6b9190611943565b915050919050565b803373ffffffffffffffffffffffffffffffffffffffff166003600083815260200190815260200160002060020160009054906101000a900473ffffffffffffffffffffffffffffffffffffffff1673ffffffffffffffffffffffffffffffffffffffff1614610c18576040517f08c379a0000000000000000000000000000000000000000000000000000000008152600401610c0f90611672565b60405180910390fd5b60006001600554600360008681526020019081526020016000206001015442610c41919061189e565b610c4b91906118d2565b610c559190611943565b905060008111610c9a576040517f08c379a0000000000000000000000000000000000000000000000000000000008152600401610c91906119c0565b60405180910390fd5b426003600085815260200190815260200160002060010181905550600160009054906101000a900473ffffffffffffffffffffffffffffffffffffffff1673ffffffffffffffffffffffffffffffffffffffff166340c10f1933836040518363ffffffff1660e01b8152600401610d129291906119e0565b600060405180830381600087803b158015610d2c57600080fd5b505af1158015610d40573d6000803e3d6000fd5b50505050505050565b803373ffffffffffffffffffffffffffffffffffffffff166003600083815260200190815260200160002060020160009054906101000a900473ffffffffffffffffffffffffffffffffffffffff1673ffffffffffffffffffffffffffffffffffffffff1614610dee576040517f08c379a0000000000000000000000000000000000000000000000000000000008152600401610de590611672565b60405180910390fd5b6003600083815260200190815260200160002060008082016000905560018201600090556002820160006101000a81549073ffffffffffffffffffffffffffffffffffffffff0219169055505060046000815480929190610e4e90611a09565b91905055503373ffffffffffffffffffffffffffffffffffffffff167f56be67a54226e3a39c5d1a710d2afc912ca5df1d89054cfeb3e65b47509ee9098342604051610e9b9291906117ac565b60405180910390a2600260009054906101000a900473ffffffffffffffffffffffffffffffffffffffff1673ffffffffffffffffffffffffffffffffffffffff166323b872dd3033856040518463ffffffff1660e01b8152600401610f02939291906117d5565b600060405180830381600087803b158015610f1c57600080fd5b505af1158015610f30573d6000803e3d6000fd5b505050505050565b610f4061107a565b73ffffffffffffffffffffffffffffffffffffffff16610f5e610639565b73ffffffffffffffffffffffffffffffffffffffff1614610fb4576040517f08c379a0000000000000000000000000000000000000000000000000000000008152600401610fab90611a7e565b60405180910390fd5b565b60008060009054906101000a900473ffffffffffffffffffffffffffffffffffffffff169050816000806101000a81548173ffffffffffffffffffffffffffffffffffffffff021916908373ffffffffffffffffffffffffffffffffffffffff1602179055508173ffffffffffffffffffffffffffffffffffffffff168173ffffffffffffffffffffffffffffffffffffffff167f8be0079c531659141344cd1fd0a4f28419497f9722a3daafe3b4186f6b6457e060405160405180910390a35050565b600033905090565b600081519050919050565b600082825260208201905092915050565b6000819050602082019050919050565b6000819050919050565b6110c1816110ae565b82525050565b60006110d383836110b8565b60208301905092915050565b6000602082019050919050565b60006110f782611082565b611101818561108d565b935061110c8361109e565b8060005b8381101561113d57815161112488826110c7565b975061112f836110df565b925050600181019050611110565b5085935050505092915050565b6000602082019050818103600083015261116481846110ec565b905092915050565b600080fd5b600080fd5b600073ffffffffffffffffffffffffffffffffffffffff82169050919050565b60006111a182611176565b9050919050565b6111b181611196565b81146111bc57600080fd5b50565b6000813590506111ce816111a8565b92915050565b6111dd816110ae565b81146111e857600080fd5b50565b6000813590506111fa816111d4565b92915050565b600080fd5b600080fd5b600080fd5b60008083601f84011261122557611224611200565b5b8235905067ffffffffffffffff81111561124257611241611205565b5b60208301915083600182028301111561125e5761125d61120a565b5b9250929050565b6000806000806000608086880312156112815761128061116c565b5b600061128f888289016111bf565b95505060206112a0888289016111bf565b94505060406112b1888289016111eb565b935050606086013567ffffffffffffffff8111156112d2576112d1611171565b5b6112de8882890161120f565b92509250509295509295909350565b60007fffffffff0000000000000000000000000000000000000000000000000000000082169050919050565b611322816112ed565b82525050565b600060208201905061133d6000830184611319565b92915050565b61134c816110ae565b82525050565b60006020820190506113676000830184611343565b92915050565b6000602082840312156113835761138261116c565b5b6000611391848285016111eb565b91505092915050565b60006113a582611196565b9050919050565b6113b58161139a565b81146113c057600080fd5b50565b6000813590506113d2816113ac565b92915050565b6000602082840312156113ee576113ed61116c565b5b60006113fc848285016113c3565b91505092915050565b61140e81611196565b82525050565b60006020820190506114296000830184611405565b92915050565b60006060820190506114446000830186611343565b6114516020830185611343565b61145e6040830184611405565b949350505050565b60006020828403121561147c5761147b61116c565b5b600061148a848285016111bf565b91505092915050565b600061149e82611196565b9050919050565b6114ae81611493565b81146114b957600080fd5b50565b6000813590506114cb816114a5565b92915050565b6000602082840312156114e7576114e661116c565b5b60006114f5848285016114bc565b91505092915050565b60008151905061150d816111d4565b92915050565b6000602082840312156115295761152861116c565b5b6000611537848285016114fe565b91505092915050565b7f4e487b7100000000000000000000000000000000000000000000000000000000600052604160045260246000fd5b7f4e487b7100000000000000000000000000000000000000000000000000000000600052603260045260246000fd5b7f4e487b7100000000000000000000000000000000000000000000000000000000600052601160045260246000fd5b60006115d8826110ae565b91507fffffffffffffffffffffffffffffffffffffffffffffffffffffffffffffffff820361160a5761160961159e565b5b600182019050919050565b600082825260208201905092915050565b7f4e6f7420746865205374616b6572000000000000000000000000000000000000600082015250565b600061165c600e83611615565b915061166782611626565b602082019050919050565b6000602082019050818103600083015261168b8161164f565b9050919050565b6000815190506116a1816111a8565b92915050565b6000602082840312156116bd576116bc61116c565b5b60006116cb84828501611692565b91505092915050565b7f4e6f7420746865204f576e657200000000000000000000000000000000000000600082015250565b600061170a600d83611615565b9150611715826116d4565b602082019050919050565b60006020820190508181036000830152611739816116fd565b9050919050565b7f416c7265616479207374616b6564000000000000000000000000000000000000600082015250565b6000611776600e83611615565b915061178182611740565b602082019050919050565b600060208201905081810360008301526117a581611769565b9050919050565b60006040820190506117c16000830185611343565b6117ce6020830184611343565b9392505050565b60006060820190506117ea6000830186611405565b6117f76020830185611405565b6118046040830184611343565b949350505050565b7f4f776e61626c653a206e6577206f776e657220697320746865207a65726f206160008201527f6464726573730000000000000000000000000000000000000000000000000000602082015250565b6000611868602683611615565b91506118738261180c565b604082019050919050565b600060208201905081810360008301526118978161185b565b9050919050565b60006118a9826110ae565b91506118b4836110ae565b92508282039050818111156118cc576118cb61159e565b5b92915050565b60006118dd826110ae565b91506118e8836110ae565b92508282026118f6816110ae565b9150828204841483151761190d5761190c61159e565b5b5092915050565b7f4e487b7100000000000000000000000000000000000000000000000000000000600052601260045260246000fd5b600061194e826110ae565b9150611959836110ae565b92508261196957611968611914565b5b828204905092915050565b7f4e6f7468696e6720746f20636c61696d00000000000000000000000000000000600082015250565b60006119aa601083611615565b91506119b582611974565b602082019050919050565b600060208201905081810360008301526119d98161199d565b9050919050565b60006040820190506119f56000830185611405565b611a026020830184611343565b9392505050565b6000611a14826110ae565b915060008203611a2757611a2661159e565b5b600182039050919050565b7f4f776e61626c653a2063616c6c6572206973206e6f7420746865206f776e6572600082015250565b6000611a68602083611615565b9150611a7382611a32565b602082019050919050565b60006020820190508181036000830152611a9781611a5b565b905091905056fea264697066735822122072ab04df7099e5d0a271e42fdbd4be32462e4eec5ded492b63edd2baf04947a364736f6c63430008110033",
  "linkReferences": {},
  "deployedLinkReferences": {}
}