{
  "_format": "hh-sol-artifact-1",
  "contractName": "DEX",
  "sourceName": "contracts/DEX.sol",
  "abi": [
    {
      "anonymous": false,
      "inputs": [
        {
          "indexed": true,
          "internalType": "address",
          "name": "payer",
          "type": "address"
        },
        {
          "indexed": false,
          "internalType": "uint256",
          "name": "weiAmount",
          "type": "uint256"
        }
      ],
      "name": "Deposited",
      "type": "event"
    },
    {
      "anonymous": false,
      "inputs": [
        {
          "indexed": true,
          "internalType": "address",
          "name": "previousOwner",
          "type": "address"
        },
        {
          "indexed": true,
          "internalType": "address",
          "name": "newOwner",
          "type": "address"
        }
      ],
      "name": "OwnershipTransferred",
      "type": "event"
    },
    {
      "anonymous": false,
      "inputs": [
        {
          "indexed": true,
          "internalType": "address",
          "name": "payee",
          "type": "address"
        },
        {
          "indexed": false,
          "internalType": "uint256",
          "name": "weiAmount",
          "type": "uint256"
        }
      ],
      "name": "Withdrawn",
      "type": "event"
    },
    {
      "inputs": [
        {
          "internalType": "string",
          "name": "_symbol",
          "type": "string"
        },
        {
          "internalType": "uint256",
          "name": "_amount",
          "type": "uint256"
        }
      ],
      "name": "addLiquidity",
      "outputs": [],
      "stateMutability": "nonpayable",
      "type": "function"
    },
    {
      "inputs": [
        {
          "internalType": "string",
          "name": "_from",
          "type": "string"
        },
        {
          "internalType": "uint256",
          "name": "_amount",
          "type": "uint256"
        }
      ],
      "name": "change",
      "outputs": [],
      "stateMutability": "nonpayable",
      "type": "function"
    },
    {
      "inputs": [],
      "name": "deposit",
      "outputs": [],
      "stateMutability": "payable",
      "type": "function"
    },
    {
      "inputs": [
        {
          "internalType": "string",
          "name": "_symbol",
          "type": "string"
        }
      ],
      "name": "getBalance",
      "outputs": [
        {
          "internalType": "uint256",
          "name": "",
          "type": "uint256"
        }
      ],
      "stateMutability": "view",
      "type": "function"
    },
    {
      "inputs": [
        {
          "internalType": "string",
          "name": "",
          "type": "string"
        }
      ],
      "name": "oracles",
      "outputs": [
        {
          "internalType": "contract IOracle",
          "name": "",
          "type": "address"
        }
      ],
      "stateMutability": "view",
      "type": "function"
    },
    {
      "inputs": [],
      "name": "owner",
      "outputs": [
        {
          "internalType": "address",
          "name": "",
          "type": "address"
        }
      ],
      "stateMutability": "view",
      "type": "function"
    },
    {
      "inputs": [],
      "name": "renounceOwnership",
      "outputs": [],
      "stateMutability": "nonpayable",
      "type": "function"
    },
    {
      "inputs": [
        {
          "internalType": "string",
          "name": "_symbol",
          "type": "string"
        },
        {
          "internalType": "contract IOracle",
          "name": "_oracle",
          "type": "address"
        }
      ],
      "name": "setOracle",
      "outputs": [],
      "stateMutability": "nonpayable",
      "type": "function"
    },
    {
      "inputs": [
        {
          "internalType": "string",
          "name": "_symbol",
          "type": "string"
        },
        {
          "internalType": "address",
          "name": "_token",
          "type": "address"
        }
      ],
      "name": "setToken",
      "outputs": [],
      "stateMutability": "nonpayable",
      "type": "function"
    },
    {
      "inputs": [
        {
          "internalType": "string",
          "name": "_from",
          "type": "string"
        },
        {
          "internalType": "string",
          "name": "_to",
          "type": "string"
        },
        {
          "internalType": "uint256",
          "name": "_amount",
          "type": "uint256"
        }
      ],
      "name": "swap",
      "outputs": [],
      "stateMutability": "nonpayable",
      "type": "function"
    },
    {
      "inputs": [
        {
          "internalType": "string",
          "name": "",
          "type": "string"
        }
      ],
      "name": "tokens",
      "outputs": [
        {
          "internalType": "address",
          "name": "",
          "type": "address"
        }
      ],
      "stateMutability": "view",
      "type": "function"
    },
    {
      "inputs": [
        {
          "internalType": "address",
          "name": "newOwner",
          "type": "address"
        }
      ],
      "name": "transferOwnership",
      "outputs": [],
      "stateMutability": "nonpayable",
      "type": "function"
    },
    {
      "inputs": [],
      "name": "withdraw",
      "outputs": [],
      "stateMutability": "nonpayable",
      "type": "function"
    }
  ],
  "bytecode": "0x608060405234801561001057600080fd5b5061002d61002261003960201b60201c565b61004160201b60201c565b60018081905550610105565b600033905090565b60008060009054906101000a900473ffffffffffffffffffffffffffffffffffffffff169050816000806101000a81548173ffffffffffffffffffffffffffffffffffffffff021916908373ffffffffffffffffffffffffffffffffffffffff1602179055508173ffffffffffffffffffffffffffffffffffffffff168173ffffffffffffffffffffffffffffffffffffffff167f8be0079c531659141344cd1fd0a4f28419497f9722a3daafe3b4186f6b6457e060405160405180910390a35050565b61209580620001156000396000f3fe6080604052600436106100c25760003560e01c806367c2f3e11161007f5780638da5cb5b116100595780638da5cb5b14610250578063a451f6021461027b578063d0e30db0146102a4578063f2fde38b146102ae576100c2565b806367c2f3e1146101d35780636d806b1e14610210578063715018a614610239576100c2565b806304c2320b146100c75780632970fdfa146101045780632d24c7ae1461012d5780633a51d246146101565780633ccfd60b14610193578063433ff288146101aa575b600080fd5b3480156100d357600080fd5b506100ee60048036038101906100e99190611573565b6102d7565b6040516100fb91906115fd565b60405180910390f35b34801561011057600080fd5b5061012b60048036038101906101269190611656565b610320565b005b34801561013957600080fd5b50610154600480360381019061014f91906116de565b610389565b005b34801561016257600080fd5b5061017d60048036038101906101789190611573565b61052c565b60405161018a9190611753565b60405180910390f35b34801561019f57600080fd5b506101a8610647565b005b3480156101b657600080fd5b506101d160048036038101906101cc919061179a565b6106fc565b005b3480156101df57600080fd5b506101fa60048036038101906101f59190611573565b6107e5565b6040516102079190611855565b60405180910390f35b34801561021c57600080fd5b506102376004803603810190610232919061179a565b61082e565b005b34801561024557600080fd5b5061024e610b68565b005b34801561025c57600080fd5b50610265610b7c565b60405161027291906115fd565b60405180910390f35b34801561028757600080fd5b506102a2600480360381019061029d9190611870565b610ba5565b005b6102ac61118c565b005b3480156102ba57600080fd5b506102d560048036038101906102d091906118fb565b6111f4565b005b6003818051602081018201805184825260208301602085012081835280955050505050506000915054906101000a900473ffffffffffffffffffffffffffffffffffffffff1681565b610328611277565b806002836040516103399190611999565b908152602001604051809103902060006101000a81548173ffffffffffffffffffffffffffffffffffffffff021916908373ffffffffffffffffffffffffffffffffffffffff1602179055505050565b610391611277565b600073ffffffffffffffffffffffffffffffffffffffff168173ffffffffffffffffffffffffffffffffffffffff16036103ca57600080fd5b816040516020016103db9190611999565b604051602081830303815290604052805190602001208173ffffffffffffffffffffffffffffffffffffffff166395d89b416040518163ffffffff1660e01b8152600401600060405180830381865afa15801561043c573d6000803e3d6000fd5b505050506040513d6000823e3d601f19601f820116820180604052508101906104659190611a20565b6040516020016104759190611999565b60405160208183030381529060405280519060200120146104cb576040517f08c379a00000000000000000000000000000000000000000000000000000000081526004016104c290611aec565b60405180910390fd5b806003836040516104dc9190611999565b908152602001604051809103902060006101000a81548173ffffffffffffffffffffffffffffffffffffffff021916908373ffffffffffffffffffffffffffffffffffffffff1602179055505050565b600060405160200161053d90611b58565b60405160208183030381529060405280519060200120826040516020016105649190611999565b604051602081830303815290604052805190602001200361058757479050610642565b6003826040516105979190611999565b908152602001604051809103902060009054906101000a900473ffffffffffffffffffffffffffffffffffffffff1673ffffffffffffffffffffffffffffffffffffffff166370a08231306040518263ffffffff1660e01b81526004016105fe91906115fd565b602060405180830381865afa15801561061b573d6000803e3d6000fd5b505050506040513d601f19601f8201168201806040525081019061063f9190611b82565b90505b919050565b61064f611277565b6106576112f5565b60004790503373ffffffffffffffffffffffffffffffffffffffff166108fc829081150290604051600060405180830381858888f193505050501580156106a2573d6000803e3d6000fd5b503373ffffffffffffffffffffffffffffffffffffffff167f7084f5476618d8e60b11ef0d7d3f06914655adb8793e28ff7f018d4c76d505d5826040516106e99190611753565b60405180910390a2506106fa611344565b565b610704611277565b61070c6112f5565b600060038360405161071e9190611999565b908152602001604051809103902060009054906101000a900473ffffffffffffffffffffffffffffffffffffffff1673ffffffffffffffffffffffffffffffffffffffff166323b872dd3330856040518463ffffffff1660e01b815260040161078993929190611baf565b6020604051808303816000875af11580156107a8573d6000803e3d6000fd5b505050506040513d601f19601f820116820180604052508101906107cc9190611c1e565b9050806107d857600080fd5b506107e1611344565b5050565b6002818051602081018201805184825260208301602085012081835280955050505050506000915054906101000a900473ffffffffffffffffffffffffffffffffffffffff1681565b6108366112f5565b60006003836040516108489190611999565b908152602001604051809103902060009054906101000a900473ffffffffffffffffffffffffffffffffffffffff169050600073ffffffffffffffffffffffffffffffffffffffff168173ffffffffffffffffffffffffffffffffffffffff16036108e8576040517f08c379a00000000000000000000000000000000000000000000000000000000081526004016108df90611c97565b60405180910390fd5b8147101561092b576040517f08c379a000000000000000000000000000000000000000000000000000000000815260040161092290611d03565b60405180910390fd5b818173ffffffffffffffffffffffffffffffffffffffff166370a08231336040518263ffffffff1660e01b815260040161096591906115fd565b602060405180830381865afa158015610982573d6000803e3d6000fd5b505050506040513d601f19601f820116820180604052508101906109a69190611b82565b10156109e7576040517f08c379a00000000000000000000000000000000000000000000000000000000081526004016109de90611d6f565b60405180910390fd5b60006002846040516109f99190611999565b908152602001604051809103902060009054906101000a900473ffffffffffffffffffffffffffffffffffffffff1673ffffffffffffffffffffffffffffffffffffffff166398d5fdca6040518163ffffffff1660e01b8152600401602060405180830381865afa158015610a72573d6000803e3d6000fd5b505050506040513d601f19601f82011682018060405250810190610a969190611b82565b905060008382610aa69190611dbe565b90508273ffffffffffffffffffffffffffffffffffffffff166379cc679033866040518363ffffffff1660e01b8152600401610ae3929190611e00565b600060405180830381600087803b158015610afd57600080fd5b505af1158015610b11573d6000803e3d6000fd5b5050505060003373ffffffffffffffffffffffffffffffffffffffff166108fc839081150290604051600060405180830381858888f19350505050905080610b5857600080fd5b50505050610b64611344565b5050565b610b70611277565b610b7a600061134d565b565b60008060009054906101000a900473ffffffffffffffffffffffffffffffffffffffff16905090565b610bad6112f5565b6000600384604051610bbf9190611999565b908152602001604051809103902060009054906101000a900473ffffffffffffffffffffffffffffffffffffffff1690506000600384604051610c029190611999565b908152602001604051809103902060009054906101000a900473ffffffffffffffffffffffffffffffffffffffff169050600073ffffffffffffffffffffffffffffffffffffffff168273ffffffffffffffffffffffffffffffffffffffff1614158015610c9d5750600073ffffffffffffffffffffffffffffffffffffffff168173ffffffffffffffffffffffffffffffffffffffff1614155b610cdc576040517f08c379a0000000000000000000000000000000000000000000000000000000008152600401610cd390611e75565b60405180910390fd5b828173ffffffffffffffffffffffffffffffffffffffff166370a08231306040518263ffffffff1660e01b8152600401610d1691906115fd565b602060405180830381865afa158015610d33573d6000803e3d6000fd5b505050506040513d601f19601f82011682018060405250810190610d579190611b82565b1015610d98576040517f08c379a0000000000000000000000000000000000000000000000000000000008152600401610d8f90611d03565b60405180910390fd5b828273ffffffffffffffffffffffffffffffffffffffff166370a08231336040518263ffffffff1660e01b8152600401610dd291906115fd565b602060405180830381865afa158015610def573d6000803e3d6000fd5b505050506040513d601f19601f82011682018060405250810190610e139190611b82565b1015610e54576040517f08c379a0000000000000000000000000000000000000000000000000000000008152600401610e4b90611d6f565b60405180910390fd5b6000600286604051610e669190611999565b908152602001604051809103902060009054906101000a900473ffffffffffffffffffffffffffffffffffffffff1673ffffffffffffffffffffffffffffffffffffffff166398d5fdca6040518163ffffffff1660e01b8152600401602060405180830381865afa158015610edf573d6000803e3d6000fd5b505050506040513d601f19601f82011682018060405250810190610f039190611b82565b90506000600286604051610f179190611999565b908152602001604051809103902060009054906101000a900473ffffffffffffffffffffffffffffffffffffffff1673ffffffffffffffffffffffffffffffffffffffff166398d5fdca6040518163ffffffff1660e01b8152600401602060405180830381865afa158015610f90573d6000803e3d6000fd5b505050506040513d601f19601f82011682018060405250810190610fb49190611b82565b90506000858284610fc59190611ec4565b610fcf9190611dbe565b905060008573ffffffffffffffffffffffffffffffffffffffff166323b872dd33308a6040518463ffffffff1660e01b815260040161101093929190611baf565b6020604051808303816000875af115801561102f573d6000803e3d6000fd5b505050506040513d601f19601f820116820180604052508101906110539190611c1e565b905060008573ffffffffffffffffffffffffffffffffffffffff1663095ea7b330856040518363ffffffff1660e01b8152600401611092929190611e00565b6020604051808303816000875af11580156110b1573d6000803e3d6000fd5b505050506040513d601f19601f820116820180604052508101906110d59190611c1e565b905060008673ffffffffffffffffffffffffffffffffffffffff166323b872dd3033876040518463ffffffff1660e01b815260040161111693929190611baf565b6020604051808303816000875af1158015611135573d6000803e3d6000fd5b505050506040513d601f19601f820116820180604052508101906111599190611c1e565b90508280156111655750805b801561116e5750815b61117757600080fd5b5050505050505050611187611344565b505050565b611194611277565b61119c6112f5565b3373ffffffffffffffffffffffffffffffffffffffff167f2da466a7b24304f47e87fa2e1e5a81b9831ce54fec19055ce277ca2f39ba42c4346040516111e29190611753565b60405180910390a26111f2611344565b565b6111fc611277565b600073ffffffffffffffffffffffffffffffffffffffff168173ffffffffffffffffffffffffffffffffffffffff160361126b576040517f08c379a000000000000000000000000000000000000000000000000000000000815260040161126290611f67565b60405180910390fd5b6112748161134d565b50565b61127f611411565b73ffffffffffffffffffffffffffffffffffffffff1661129d610b7c565b73ffffffffffffffffffffffffffffffffffffffff16146112f3576040517f08c379a00000000000000000000000000000000000000000000000000000000081526004016112ea90611fd3565b60405180910390fd5b565b60026001540361133a576040517f08c379a00000000000000000000000000000000000000000000000000000000081526004016113319061203f565b60405180910390fd5b6002600181905550565b60018081905550565b60008060009054906101000a900473ffffffffffffffffffffffffffffffffffffffff169050816000806101000a81548173ffffffffffffffffffffffffffffffffffffffff021916908373ffffffffffffffffffffffffffffffffffffffff1602179055508173ffffffffffffffffffffffffffffffffffffffff168173ffffffffffffffffffffffffffffffffffffffff167f8be0079c531659141344cd1fd0a4f28419497f9722a3daafe3b4186f6b6457e060405160405180910390a35050565b600033905090565b6000604051905090565b600080fd5b600080fd5b600080fd5b600080fd5b6000601f19601f8301169050919050565b7f4e487b7100000000000000000000000000000000000000000000000000000000600052604160045260246000fd5b61148082611437565b810181811067ffffffffffffffff8211171561149f5761149e611448565b5b80604052505050565b60006114b2611419565b90506114be8282611477565b919050565b600067ffffffffffffffff8211156114de576114dd611448565b5b6114e782611437565b9050602081019050919050565b82818337600083830152505050565b6000611516611511846114c3565b6114a8565b90508281526020810184848401111561153257611531611432565b5b61153d8482856114f4565b509392505050565b600082601f83011261155a5761155961142d565b5b813561156a848260208601611503565b91505092915050565b60006020828403121561158957611588611423565b5b600082013567ffffffffffffffff8111156115a7576115a6611428565b5b6115b384828501611545565b91505092915050565b600073ffffffffffffffffffffffffffffffffffffffff82169050919050565b60006115e7826115bc565b9050919050565b6115f7816115dc565b82525050565b600060208201905061161260008301846115ee565b92915050565b6000611623826115dc565b9050919050565b61163381611618565b811461163e57600080fd5b50565b6000813590506116508161162a565b92915050565b6000806040838503121561166d5761166c611423565b5b600083013567ffffffffffffffff81111561168b5761168a611428565b5b61169785828601611545565b92505060206116a885828601611641565b9150509250929050565b6116bb816115dc565b81146116c657600080fd5b50565b6000813590506116d8816116b2565b92915050565b600080604083850312156116f5576116f4611423565b5b600083013567ffffffffffffffff81111561171357611712611428565b5b61171f85828601611545565b9250506020611730858286016116c9565b9150509250929050565b6000819050919050565b61174d8161173a565b82525050565b60006020820190506117686000830184611744565b92915050565b6117778161173a565b811461178257600080fd5b50565b6000813590506117948161176e565b92915050565b600080604083850312156117b1576117b0611423565b5b600083013567ffffffffffffffff8111156117cf576117ce611428565b5b6117db85828601611545565b92505060206117ec85828601611785565b9150509250929050565b6000819050919050565b600061181b611816611811846115bc565b6117f6565b6115bc565b9050919050565b600061182d82611800565b9050919050565b600061183f82611822565b9050919050565b61184f81611834565b82525050565b600060208201905061186a6000830184611846565b92915050565b60008060006060848603121561188957611888611423565b5b600084013567ffffffffffffffff8111156118a7576118a6611428565b5b6118b386828701611545565b935050602084013567ffffffffffffffff8111156118d4576118d3611428565b5b6118e086828701611545565b92505060406118f186828701611785565b9150509250925092565b60006020828403121561191157611910611423565b5b600061191f848285016116c9565b91505092915050565b600081519050919050565b600081905092915050565b60005b8381101561195c578082015181840152602081019050611941565b60008484015250505050565b600061197382611928565b61197d8185611933565b935061198d81856020860161193e565b80840191505092915050565b60006119a58284611968565b915081905092915050565b60006119c36119be846114c3565b6114a8565b9050828152602081018484840111156119df576119de611432565b5b6119ea84828561193e565b509392505050565b600082601f830112611a0757611a0661142d565b5b8151611a178482602086016119b0565b91505092915050565b600060208284031215611a3657611a35611423565b5b600082015167ffffffffffffffff811115611a5457611a53611428565b5b611a60848285016119f2565b91505092915050565b600082825260208201905092915050565b7f496e76616c69642053796d626f6c206f7220636f6e747261637420616464726560008201527f7373000000000000000000000000000000000000000000000000000000000000602082015250565b6000611ad6602283611a69565b9150611ae182611a7a565b604082019050919050565b60006020820190508181036000830152611b0581611ac9565b9050919050565b7f4d41544943000000000000000000000000000000000000000000000000000000600082015250565b6000611b42600583611933565b9150611b4d82611b0c565b600582019050919050565b6000611b6382611b35565b9150819050919050565b600081519050611b7c8161176e565b92915050565b600060208284031215611b9857611b97611423565b5b6000611ba684828501611b6d565b91505092915050565b6000606082019050611bc460008301866115ee565b611bd160208301856115ee565b611bde6040830184611744565b949350505050565b60008115159050919050565b611bfb81611be6565b8114611c0657600080fd5b50565b600081519050611c1881611bf2565b92915050565b600060208284031215611c3457611c33611423565b5b6000611c4284828501611c09565b91505092915050565b7f496e76616c696420746f6b656e00000000000000000000000000000000000000600082015250565b6000611c81600d83611a69565b9150611c8c82611c4b565b602082019050919050565b60006020820190508181036000830152611cb081611c74565b9050919050565b7f496e737566696369656e7420446578204c697175696469747900000000000000600082015250565b6000611ced601983611a69565b9150611cf882611cb7565b602082019050919050565b60006020820190508181036000830152611d1c81611ce0565b9050919050565b7f496e737566696369656e74205377617065722042616c616e6365000000000000600082015250565b6000611d59601a83611a69565b9150611d6482611d23565b602082019050919050565b60006020820190508181036000830152611d8881611d4c565b9050919050565b7f4e487b7100000000000000000000000000000000000000000000000000000000600052601160045260246000fd5b6000611dc98261173a565b9150611dd48361173a565b9250828202611de28161173a565b91508282048414831517611df957611df8611d8f565b5b5092915050565b6000604082019050611e1560008301856115ee565b611e226020830184611744565b9392505050565b7f496e76616c696420746f6b656e73000000000000000000000000000000000000600082015250565b6000611e5f600e83611a69565b9150611e6a82611e29565b602082019050919050565b60006020820190508181036000830152611e8e81611e52565b9050919050565b7f4e487b7100000000000000000000000000000000000000000000000000000000600052601260045260246000fd5b6000611ecf8261173a565b9150611eda8361173a565b925082611eea57611ee9611e95565b5b828204905092915050565b7f4f776e61626c653a206e6577206f776e657220697320746865207a65726f206160008201527f6464726573730000000000000000000000000000000000000000000000000000602082015250565b6000611f51602683611a69565b9150611f5c82611ef5565b604082019050919050565b60006020820190508181036000830152611f8081611f44565b9050919050565b7f4f776e61626c653a2063616c6c6572206973206e6f7420746865206f776e6572600082015250565b6000611fbd602083611a69565b9150611fc882611f87565b602082019050919050565b60006020820190508181036000830152611fec81611fb0565b9050919050565b7f5265656e7472616e637947756172643a207265656e7472616e742063616c6c00600082015250565b6000612029601f83611a69565b915061203482611ff3565b602082019050919050565b600060208201905081810360008301526120588161201c565b905091905056fea26469706673582212200f309f435a2826c870ac9a7885635917ba6a0ac559daff228a3c69670097ede664736f6c63430008110033",
  "linkReferences": {},
  "deployedLinkReferences": {}
}