{
  "_format": "hh-sol-artifact-1",
  "contractName": "DEX",
  "sourceName": "contracts/DEX.sol",
  "abi": [
    {
      "anonymous": false,
      "inputs": [
        {
          "indexed": true,
          "internalType": "address",
          "name": "payer",
          "type": "address"
        },
        {
          "indexed": false,
          "internalType": "uint256",
          "name": "weiAmount",
          "type": "uint256"
        }
      ],
      "name": "Deposited",
      "type": "event"
    },
    {
      "anonymous": false,
      "inputs": [
        {
          "indexed": true,
          "internalType": "address",
          "name": "previousOwner",
          "type": "address"
        },
        {
          "indexed": true,
          "internalType": "address",
          "name": "newOwner",
          "type": "address"
        }
      ],
      "name": "OwnershipTransferred",
      "type": "event"
    },
    {
      "anonymous": false,
      "inputs": [
        {
          "indexed": true,
          "internalType": "address",
          "name": "payee",
          "type": "address"
        },
        {
          "indexed": false,
          "internalType": "uint256",
          "name": "weiAmount",
          "type": "uint256"
        }
      ],
      "name": "Withdrawn",
      "type": "event"
    },
    {
      "inputs": [
        {
          "internalType": "string",
          "name": "_symbol",
          "type": "string"
        },
        {
          "internalType": "uint256",
          "name": "_amount",
          "type": "uint256"
        }
      ],
      "name": "addLiquidity",
      "outputs": [],
      "stateMutability": "nonpayable",
      "type": "function"
    },
    {
      "inputs": [
        {
          "internalType": "string",
          "name": "_from",
          "type": "string"
        },
        {
          "internalType": "uint256",
          "name": "_amountFrom",
          "type": "uint256"
        },
        {
          "internalType": "uint256",
          "name": "_amountTo",
          "type": "uint256"
        }
      ],
      "name": "change",
      "outputs": [],
      "stateMutability": "nonpayable",
      "type": "function"
    },
    {
      "inputs": [],
      "name": "deposit",
      "outputs": [],
      "stateMutability": "payable",
      "type": "function"
    },
    {
      "inputs": [
        {
          "internalType": "string",
          "name": "_symbol",
          "type": "string"
        }
      ],
      "name": "getBalance",
      "outputs": [
        {
          "internalType": "uint256",
          "name": "",
          "type": "uint256"
        }
      ],
      "stateMutability": "view",
      "type": "function"
    },
    {
      "inputs": [
        {
          "internalType": "string",
          "name": "",
          "type": "string"
        }
      ],
      "name": "oracles",
      "outputs": [
        {
          "internalType": "contract IOracle",
          "name": "",
          "type": "address"
        }
      ],
      "stateMutability": "view",
      "type": "function"
    },
    {
      "inputs": [],
      "name": "owner",
      "outputs": [
        {
          "internalType": "address",
          "name": "",
          "type": "address"
        }
      ],
      "stateMutability": "view",
      "type": "function"
    },
    {
      "inputs": [],
      "name": "renounceOwnership",
      "outputs": [],
      "stateMutability": "nonpayable",
      "type": "function"
    },
    {
      "inputs": [
        {
          "internalType": "string",
          "name": "_symbol",
          "type": "string"
        },
        {
          "internalType": "contract IOracle",
          "name": "_oracle",
          "type": "address"
        }
      ],
      "name": "setOracle",
      "outputs": [],
      "stateMutability": "nonpayable",
      "type": "function"
    },
    {
      "inputs": [
        {
          "internalType": "string",
          "name": "_symbol",
          "type": "string"
        },
        {
          "internalType": "address",
          "name": "_token",
          "type": "address"
        }
      ],
      "name": "setToken",
      "outputs": [],
      "stateMutability": "nonpayable",
      "type": "function"
    },
    {
      "inputs": [
        {
          "internalType": "string",
          "name": "_from",
          "type": "string"
        },
        {
          "internalType": "string",
          "name": "_to",
          "type": "string"
        },
        {
          "internalType": "uint256",
          "name": "_amount",
          "type": "uint256"
        }
      ],
      "name": "swap",
      "outputs": [],
      "stateMutability": "nonpayable",
      "type": "function"
    },
    {
      "inputs": [
        {
          "internalType": "string",
          "name": "",
          "type": "string"
        }
      ],
      "name": "tokens",
      "outputs": [
        {
          "internalType": "address",
          "name": "",
          "type": "address"
        }
      ],
      "stateMutability": "view",
      "type": "function"
    },
    {
      "inputs": [
        {
          "internalType": "address",
          "name": "newOwner",
          "type": "address"
        }
      ],
      "name": "transferOwnership",
      "outputs": [],
      "stateMutability": "nonpayable",
      "type": "function"
    },
    {
      "inputs": [],
      "name": "withdraw",
      "outputs": [],
      "stateMutability": "nonpayable",
      "type": "function"
    }
  ],
  "bytecode": "0x608060405234801561001057600080fd5b5061002d61002261003960201b60201c565b61004160201b60201c565b60018081905550610105565b600033905090565b60008060009054906101000a900473ffffffffffffffffffffffffffffffffffffffff169050816000806101000a81548173ffffffffffffffffffffffffffffffffffffffff021916908373ffffffffffffffffffffffffffffffffffffffff1602179055508173ffffffffffffffffffffffffffffffffffffffff168173ffffffffffffffffffffffffffffffffffffffff167f8be0079c531659141344cd1fd0a4f28419497f9722a3daafe3b4186f6b6457e060405160405180910390a35050565b61204280620001156000396000f3fe6080604052600436106100c25760003560e01c806367c2f3e11161007f578063a451f60211610059578063a451f60214610252578063c46644ee1461027b578063d0e30db0146102a4578063f2fde38b146102ae576100c2565b806367c2f3e1146101d3578063715018a6146102105780638da5cb5b14610227576100c2565b806304c2320b146100c75780632970fdfa146101045780632d24c7ae1461012d5780633a51d246146101565780633ccfd60b14610193578063433ff288146101aa575b600080fd5b3480156100d357600080fd5b506100ee60048036038101906100e991906114b1565b6102d7565b6040516100fb919061153b565b60405180910390f35b34801561011057600080fd5b5061012b60048036038101906101269190611594565b610320565b005b34801561013957600080fd5b50610154600480360381019061014f919061161c565b610389565b005b34801561016257600080fd5b5061017d600480360381019061017891906114b1565b61052c565b60405161018a9190611691565b60405180910390f35b34801561019f57600080fd5b506101a8610647565b005b3480156101b657600080fd5b506101d160048036038101906101cc91906116d8565b6106fc565b005b3480156101df57600080fd5b506101fa60048036038101906101f591906114b1565b6107e5565b6040516102079190611793565b60405180910390f35b34801561021c57600080fd5b5061022561082e565b005b34801561023357600080fd5b5061023c610842565b604051610249919061153b565b60405180910390f35b34801561025e57600080fd5b50610279600480360381019061027491906117ae565b61086b565b005b34801561028757600080fd5b506102a2600480360381019061029d9190611839565b610e52565b005b6102ac6110ca565b005b3480156102ba57600080fd5b506102d560048036038101906102d091906118a8565b611132565b005b6003818051602081018201805184825260208301602085012081835280955050505050506000915054906101000a900473ffffffffffffffffffffffffffffffffffffffff1681565b6103286111b5565b806002836040516103399190611946565b908152602001604051809103902060006101000a81548173ffffffffffffffffffffffffffffffffffffffff021916908373ffffffffffffffffffffffffffffffffffffffff1602179055505050565b6103916111b5565b600073ffffffffffffffffffffffffffffffffffffffff168173ffffffffffffffffffffffffffffffffffffffff16036103ca57600080fd5b816040516020016103db9190611946565b604051602081830303815290604052805190602001208173ffffffffffffffffffffffffffffffffffffffff166395d89b416040518163ffffffff1660e01b8152600401600060405180830381865afa15801561043c573d6000803e3d6000fd5b505050506040513d6000823e3d601f19601f8201168201806040525081019061046591906119cd565b6040516020016104759190611946565b60405160208183030381529060405280519060200120146104cb576040517f08c379a00000000000000000000000000000000000000000000000000000000081526004016104c290611a99565b60405180910390fd5b806003836040516104dc9190611946565b908152602001604051809103902060006101000a81548173ffffffffffffffffffffffffffffffffffffffff021916908373ffffffffffffffffffffffffffffffffffffffff1602179055505050565b600060405160200161053d90611b05565b60405160208183030381529060405280519060200120826040516020016105649190611946565b604051602081830303815290604052805190602001200361058757479050610642565b6003826040516105979190611946565b908152602001604051809103902060009054906101000a900473ffffffffffffffffffffffffffffffffffffffff1673ffffffffffffffffffffffffffffffffffffffff166370a08231306040518263ffffffff1660e01b81526004016105fe919061153b565b602060405180830381865afa15801561061b573d6000803e3d6000fd5b505050506040513d601f19601f8201168201806040525081019061063f9190611b2f565b90505b919050565b61064f6111b5565b610657611233565b60004790503373ffffffffffffffffffffffffffffffffffffffff166108fc829081150290604051600060405180830381858888f193505050501580156106a2573d6000803e3d6000fd5b503373ffffffffffffffffffffffffffffffffffffffff167f7084f5476618d8e60b11ef0d7d3f06914655adb8793e28ff7f018d4c76d505d5826040516106e99190611691565b60405180910390a2506106fa611282565b565b6107046111b5565b61070c611233565b600060038360405161071e9190611946565b908152602001604051809103902060009054906101000a900473ffffffffffffffffffffffffffffffffffffffff1673ffffffffffffffffffffffffffffffffffffffff166323b872dd3330856040518463ffffffff1660e01b815260040161078993929190611b5c565b6020604051808303816000875af11580156107a8573d6000803e3d6000fd5b505050506040513d601f19601f820116820180604052508101906107cc9190611bcb565b9050806107d857600080fd5b506107e1611282565b5050565b6002818051602081018201805184825260208301602085012081835280955050505050506000915054906101000a900473ffffffffffffffffffffffffffffffffffffffff1681565b6108366111b5565b610840600061128b565b565b60008060009054906101000a900473ffffffffffffffffffffffffffffffffffffffff16905090565b610873611233565b60006003846040516108859190611946565b908152602001604051809103902060009054906101000a900473ffffffffffffffffffffffffffffffffffffffff16905060006003846040516108c89190611946565b908152602001604051809103902060009054906101000a900473ffffffffffffffffffffffffffffffffffffffff169050600073ffffffffffffffffffffffffffffffffffffffff168273ffffffffffffffffffffffffffffffffffffffff16141580156109635750600073ffffffffffffffffffffffffffffffffffffffff168173ffffffffffffffffffffffffffffffffffffffff1614155b6109a2576040517f08c379a000000000000000000000000000000000000000000000000000000000815260040161099990611c44565b60405180910390fd5b828173ffffffffffffffffffffffffffffffffffffffff166370a08231306040518263ffffffff1660e01b81526004016109dc919061153b565b602060405180830381865afa1580156109f9573d6000803e3d6000fd5b505050506040513d601f19601f82011682018060405250810190610a1d9190611b2f565b1015610a5e576040517f08c379a0000000000000000000000000000000000000000000000000000000008152600401610a5590611cb0565b60405180910390fd5b828273ffffffffffffffffffffffffffffffffffffffff166370a08231336040518263ffffffff1660e01b8152600401610a98919061153b565b602060405180830381865afa158015610ab5573d6000803e3d6000fd5b505050506040513d601f19601f82011682018060405250810190610ad99190611b2f565b1015610b1a576040517f08c379a0000000000000000000000000000000000000000000000000000000008152600401610b1190611d1c565b60405180910390fd5b6000600286604051610b2c9190611946565b908152602001604051809103902060009054906101000a900473ffffffffffffffffffffffffffffffffffffffff1673ffffffffffffffffffffffffffffffffffffffff166398d5fdca6040518163ffffffff1660e01b8152600401602060405180830381865afa158015610ba5573d6000803e3d6000fd5b505050506040513d601f19601f82011682018060405250810190610bc99190611b2f565b90506000600286604051610bdd9190611946565b908152602001604051809103902060009054906101000a900473ffffffffffffffffffffffffffffffffffffffff1673ffffffffffffffffffffffffffffffffffffffff166398d5fdca6040518163ffffffff1660e01b8152600401602060405180830381865afa158015610c56573d6000803e3d6000fd5b505050506040513d601f19601f82011682018060405250810190610c7a9190611b2f565b90506000858284610c8b9190611d9a565b610c959190611dcb565b905060008573ffffffffffffffffffffffffffffffffffffffff166323b872dd33308a6040518463ffffffff1660e01b8152600401610cd693929190611b5c565b6020604051808303816000875af1158015610cf5573d6000803e3d6000fd5b505050506040513d601f19601f82011682018060405250810190610d199190611bcb565b905060008573ffffffffffffffffffffffffffffffffffffffff1663095ea7b330856040518363ffffffff1660e01b8152600401610d58929190611e0d565b6020604051808303816000875af1158015610d77573d6000803e3d6000fd5b505050506040513d601f19601f82011682018060405250810190610d9b9190611bcb565b905060008673ffffffffffffffffffffffffffffffffffffffff166323b872dd3033876040518463ffffffff1660e01b8152600401610ddc93929190611b5c565b6020604051808303816000875af1158015610dfb573d6000803e3d6000fd5b505050506040513d601f19601f82011682018060405250810190610e1f9190611bcb565b9050828015610e2b5750805b8015610e345750815b610e3d57600080fd5b5050505050505050610e4d611282565b505050565b610e5a611233565b6000600384604051610e6c9190611946565b908152602001604051809103902060009054906101000a900473ffffffffffffffffffffffffffffffffffffffff169050600073ffffffffffffffffffffffffffffffffffffffff168173ffffffffffffffffffffffffffffffffffffffff1603610f0c576040517f08c379a0000000000000000000000000000000000000000000000000000000008152600401610f0390611e82565b60405180910390fd5b81471015610f4f576040517f08c379a0000000000000000000000000000000000000000000000000000000008152600401610f4690611cb0565b60405180910390fd5b828173ffffffffffffffffffffffffffffffffffffffff166370a08231336040518263ffffffff1660e01b8152600401610f89919061153b565b602060405180830381865afa158015610fa6573d6000803e3d6000fd5b505050506040513d601f19601f82011682018060405250810190610fca9190611b2f565b101561100b576040517f08c379a000000000000000000000000000000000000000000000000000000000815260040161100290611d1c565b60405180910390fd5b8073ffffffffffffffffffffffffffffffffffffffff166379cc679033856040518363ffffffff1660e01b8152600401611046929190611e0d565b600060405180830381600087803b15801561106057600080fd5b505af1158015611074573d6000803e3d6000fd5b5050505060003373ffffffffffffffffffffffffffffffffffffffff166108fc849081150290604051600060405180830381858888f193505050509050806110bb57600080fd5b50506110c5611282565b505050565b6110d26111b5565b6110da611233565b3373ffffffffffffffffffffffffffffffffffffffff167f2da466a7b24304f47e87fa2e1e5a81b9831ce54fec19055ce277ca2f39ba42c4346040516111209190611691565b60405180910390a2611130611282565b565b61113a6111b5565b600073ffffffffffffffffffffffffffffffffffffffff168173ffffffffffffffffffffffffffffffffffffffff16036111a9576040517f08c379a00000000000000000000000000000000000000000000000000000000081526004016111a090611f14565b60405180910390fd5b6111b28161128b565b50565b6111bd61134f565b73ffffffffffffffffffffffffffffffffffffffff166111db610842565b73ffffffffffffffffffffffffffffffffffffffff1614611231576040517f08c379a000000000000000000000000000000000000000000000000000000000815260040161122890611f80565b60405180910390fd5b565b600260015403611278576040517f08c379a000000000000000000000000000000000000000000000000000000000815260040161126f90611fec565b60405180910390fd5b6002600181905550565b60018081905550565b60008060009054906101000a900473ffffffffffffffffffffffffffffffffffffffff169050816000806101000a81548173ffffffffffffffffffffffffffffffffffffffff021916908373ffffffffffffffffffffffffffffffffffffffff1602179055508173ffffffffffffffffffffffffffffffffffffffff168173ffffffffffffffffffffffffffffffffffffffff167f8be0079c531659141344cd1fd0a4f28419497f9722a3daafe3b4186f6b6457e060405160405180910390a35050565b600033905090565b6000604051905090565b600080fd5b600080fd5b600080fd5b600080fd5b6000601f19601f8301169050919050565b7f4e487b7100000000000000000000000000000000000000000000000000000000600052604160045260246000fd5b6113be82611375565b810181811067ffffffffffffffff821117156113dd576113dc611386565b5b80604052505050565b60006113f0611357565b90506113fc82826113b5565b919050565b600067ffffffffffffffff82111561141c5761141b611386565b5b61142582611375565b9050602081019050919050565b82818337600083830152505050565b600061145461144f84611401565b6113e6565b9050828152602081018484840111156114705761146f611370565b5b61147b848285611432565b509392505050565b600082601f8301126114985761149761136b565b5b81356114a8848260208601611441565b91505092915050565b6000602082840312156114c7576114c6611361565b5b600082013567ffffffffffffffff8111156114e5576114e4611366565b5b6114f184828501611483565b91505092915050565b600073ffffffffffffffffffffffffffffffffffffffff82169050919050565b6000611525826114fa565b9050919050565b6115358161151a565b82525050565b6000602082019050611550600083018461152c565b92915050565b60006115618261151a565b9050919050565b61157181611556565b811461157c57600080fd5b50565b60008135905061158e81611568565b92915050565b600080604083850312156115ab576115aa611361565b5b600083013567ffffffffffffffff8111156115c9576115c8611366565b5b6115d585828601611483565b92505060206115e68582860161157f565b9150509250929050565b6115f98161151a565b811461160457600080fd5b50565b600081359050611616816115f0565b92915050565b6000806040838503121561163357611632611361565b5b600083013567ffffffffffffffff81111561165157611650611366565b5b61165d85828601611483565b925050602061166e85828601611607565b9150509250929050565b6000819050919050565b61168b81611678565b82525050565b60006020820190506116a66000830184611682565b92915050565b6116b581611678565b81146116c057600080fd5b50565b6000813590506116d2816116ac565b92915050565b600080604083850312156116ef576116ee611361565b5b600083013567ffffffffffffffff81111561170d5761170c611366565b5b61171985828601611483565b925050602061172a858286016116c3565b9150509250929050565b6000819050919050565b600061175961175461174f846114fa565b611734565b6114fa565b9050919050565b600061176b8261173e565b9050919050565b600061177d82611760565b9050919050565b61178d81611772565b82525050565b60006020820190506117a86000830184611784565b92915050565b6000806000606084860312156117c7576117c6611361565b5b600084013567ffffffffffffffff8111156117e5576117e4611366565b5b6117f186828701611483565b935050602084013567ffffffffffffffff81111561181257611811611366565b5b61181e86828701611483565b925050604061182f868287016116c3565b9150509250925092565b60008060006060848603121561185257611851611361565b5b600084013567ffffffffffffffff8111156118705761186f611366565b5b61187c86828701611483565b935050602061188d868287016116c3565b925050604061189e868287016116c3565b9150509250925092565b6000602082840312156118be576118bd611361565b5b60006118cc84828501611607565b91505092915050565b600081519050919050565b600081905092915050565b60005b838110156119095780820151818401526020810190506118ee565b60008484015250505050565b6000611920826118d5565b61192a81856118e0565b935061193a8185602086016118eb565b80840191505092915050565b60006119528284611915565b915081905092915050565b600061197061196b84611401565b6113e6565b90508281526020810184848401111561198c5761198b611370565b5b6119978482856118eb565b509392505050565b600082601f8301126119b4576119b361136b565b5b81516119c484826020860161195d565b91505092915050565b6000602082840312156119e3576119e2611361565b5b600082015167ffffffffffffffff811115611a0157611a00611366565b5b611a0d8482850161199f565b91505092915050565b600082825260208201905092915050565b7f496e76616c69642053796d626f6c206f7220636f6e747261637420616464726560008201527f7373000000000000000000000000000000000000000000000000000000000000602082015250565b6000611a83602283611a16565b9150611a8e82611a27565b604082019050919050565b60006020820190508181036000830152611ab281611a76565b9050919050565b7f4d41544943000000000000000000000000000000000000000000000000000000600082015250565b6000611aef6005836118e0565b9150611afa82611ab9565b600582019050919050565b6000611b1082611ae2565b9150819050919050565b600081519050611b29816116ac565b92915050565b600060208284031215611b4557611b44611361565b5b6000611b5384828501611b1a565b91505092915050565b6000606082019050611b71600083018661152c565b611b7e602083018561152c565b611b8b6040830184611682565b949350505050565b60008115159050919050565b611ba881611b93565b8114611bb357600080fd5b50565b600081519050611bc581611b9f565b92915050565b600060208284031215611be157611be0611361565b5b6000611bef84828501611bb6565b91505092915050565b7f496e76616c696420746f6b656e73000000000000000000000000000000000000600082015250565b6000611c2e600e83611a16565b9150611c3982611bf8565b602082019050919050565b60006020820190508181036000830152611c5d81611c21565b9050919050565b7f496e737566696369656e7420446578204c697175696469747900000000000000600082015250565b6000611c9a601983611a16565b9150611ca582611c64565b602082019050919050565b60006020820190508181036000830152611cc981611c8d565b9050919050565b7f496e737566696369656e74205377617065722042616c616e6365000000000000600082015250565b6000611d06601a83611a16565b9150611d1182611cd0565b602082019050919050565b60006020820190508181036000830152611d3581611cf9565b9050919050565b7f4e487b7100000000000000000000000000000000000000000000000000000000600052601260045260246000fd5b7f4e487b7100000000000000000000000000000000000000000000000000000000600052601160045260246000fd5b6000611da582611678565b9150611db083611678565b925082611dc057611dbf611d3c565b5b828204905092915050565b6000611dd682611678565b9150611de183611678565b9250828202611def81611678565b91508282048414831517611e0657611e05611d6b565b5b5092915050565b6000604082019050611e22600083018561152c565b611e2f6020830184611682565b9392505050565b7f496e76616c696420746f6b656e00000000000000000000000000000000000000600082015250565b6000611e6c600d83611a16565b9150611e7782611e36565b602082019050919050565b60006020820190508181036000830152611e9b81611e5f565b9050919050565b7f4f776e61626c653a206e6577206f776e657220697320746865207a65726f206160008201527f6464726573730000000000000000000000000000000000000000000000000000602082015250565b6000611efe602683611a16565b9150611f0982611ea2565b604082019050919050565b60006020820190508181036000830152611f2d81611ef1565b9050919050565b7f4f776e61626c653a2063616c6c6572206973206e6f7420746865206f776e6572600082015250565b6000611f6a602083611a16565b9150611f7582611f34565b602082019050919050565b60006020820190508181036000830152611f9981611f5d565b9050919050565b7f5265656e7472616e637947756172643a207265656e7472616e742063616c6c00600082015250565b6000611fd6601f83611a16565b9150611fe182611fa0565b602082019050919050565b6000602082019050818103600083015261200581611fc9565b905091905056fea264697066735822122097d70e5965088184742f644cbe901d8211c1e8350f5857948be0c1ed77bcd4f864736f6c63430008110033",
  "linkReferences": {},
  "deployedLinkReferences": {}
}