{
  "_format": "hh-sol-artifact-1",
  "contractName": "NFTStaking",
  "sourceName": "contracts/Staking.sol",
  "abi": [
    {
      "inputs": [],
      "stateMutability": "nonpayable",
      "type": "constructor"
    },
    {
      "anonymous": false,
      "inputs": [
        {
          "indexed": false,
          "internalType": "uint256",
          "name": "value",
          "type": "uint256"
        },
        {
          "indexed": true,
          "internalType": "address",
          "name": "owner",
          "type": "address"
        }
      ],
      "name": "ClaimEarnings",
      "type": "event"
    },
    {
      "anonymous": false,
      "inputs": [
        {
          "indexed": true,
          "internalType": "address",
          "name": "previousOwner",
          "type": "address"
        },
        {
          "indexed": true,
          "internalType": "address",
          "name": "newOwner",
          "type": "address"
        }
      ],
      "name": "OwnershipTransferred",
      "type": "event"
    },
    {
      "anonymous": false,
      "inputs": [
        {
          "indexed": false,
          "internalType": "uint256",
          "name": "tokenID",
          "type": "uint256"
        },
        {
          "indexed": false,
          "internalType": "uint256",
          "name": "stakingTime",
          "type": "uint256"
        },
        {
          "indexed": true,
          "internalType": "address",
          "name": "owner",
          "type": "address"
        }
      ],
      "name": "Staked",
      "type": "event"
    },
    {
      "anonymous": false,
      "inputs": [
        {
          "indexed": false,
          "internalType": "uint256",
          "name": "tokenID",
          "type": "uint256"
        },
        {
          "indexed": false,
          "internalType": "uint256",
          "name": "unstakingTime",
          "type": "uint256"
        },
        {
          "indexed": true,
          "internalType": "address",
          "name": "owner",
          "type": "address"
        }
      ],
      "name": "UnStaked",
      "type": "event"
    },
    {
      "inputs": [
        {
          "internalType": "uint256",
          "name": "_tokenID",
          "type": "uint256"
        }
      ],
      "name": "claim",
      "outputs": [],
      "stateMutability": "nonpayable",
      "type": "function"
    },
    {
      "inputs": [],
      "name": "claimAll",
      "outputs": [],
      "stateMutability": "nonpayable",
      "type": "function"
    },
    {
      "inputs": [
        {
          "internalType": "uint256",
          "name": "_tokenID",
          "type": "uint256"
        }
      ],
      "name": "getPendingRewards",
      "outputs": [
        {
          "internalType": "uint256",
          "name": "",
          "type": "uint256"
        }
      ],
      "stateMutability": "view",
      "type": "function"
    },
    {
      "inputs": [],
      "name": "getStakedTokens",
      "outputs": [
        {
          "internalType": "uint256[]",
          "name": "",
          "type": "uint256[]"
        }
      ],
      "stateMutability": "view",
      "type": "function"
    },
    {
      "inputs": [
        {
          "internalType": "uint256",
          "name": "",
          "type": "uint256"
        }
      ],
      "name": "nftsStaked",
      "outputs": [
        {
          "internalType": "uint256",
          "name": "tokenID",
          "type": "uint256"
        },
        {
          "internalType": "uint256",
          "name": "stakingTime",
          "type": "uint256"
        },
        {
          "internalType": "address",
          "name": "owner",
          "type": "address"
        }
      ],
      "stateMutability": "view",
      "type": "function"
    },
    {
      "inputs": [
        {
          "internalType": "address",
          "name": "operator",
          "type": "address"
        },
        {
          "internalType": "address",
          "name": "from",
          "type": "address"
        },
        {
          "internalType": "uint256",
          "name": "id",
          "type": "uint256"
        },
        {
          "internalType": "bytes",
          "name": "data",
          "type": "bytes"
        }
      ],
      "name": "onERC721Received",
      "outputs": [
        {
          "internalType": "bytes4",
          "name": "",
          "type": "bytes4"
        }
      ],
      "stateMutability": "nonpayable",
      "type": "function"
    },
    {
      "inputs": [],
      "name": "owner",
      "outputs": [
        {
          "internalType": "address",
          "name": "",
          "type": "address"
        }
      ],
      "stateMutability": "view",
      "type": "function"
    },
    {
      "inputs": [],
      "name": "renounceOwnership",
      "outputs": [],
      "stateMutability": "nonpayable",
      "type": "function"
    },
    {
      "inputs": [],
      "name": "rewardTime",
      "outputs": [
        {
          "internalType": "uint256",
          "name": "",
          "type": "uint256"
        }
      ],
      "stateMutability": "view",
      "type": "function"
    },
    {
      "inputs": [
        {
          "internalType": "contract MyAwesomeNFT_witheList",
          "name": "_nft",
          "type": "address"
        }
      ],
      "name": "setNft",
      "outputs": [],
      "stateMutability": "nonpayable",
      "type": "function"
    },
    {
      "inputs": [
        {
          "internalType": "contract RewardToken",
          "name": "_token",
          "type": "address"
        }
      ],
      "name": "setRewardToken",
      "outputs": [],
      "stateMutability": "nonpayable",
      "type": "function"
    },
    {
      "inputs": [
        {
          "internalType": "uint256",
          "name": "_tokenID",
          "type": "uint256"
        }
      ],
      "name": "stake",
      "outputs": [],
      "stateMutability": "nonpayable",
      "type": "function"
    },
    {
      "inputs": [],
      "name": "totalStaking",
      "outputs": [
        {
          "internalType": "uint256",
          "name": "",
          "type": "uint256"
        }
      ],
      "stateMutability": "view",
      "type": "function"
    },
    {
      "inputs": [
        {
          "internalType": "address",
          "name": "newOwner",
          "type": "address"
        }
      ],
      "name": "transferOwnership",
      "outputs": [],
      "stateMutability": "nonpayable",
      "type": "function"
    },
    {
      "inputs": [
        {
          "internalType": "uint256",
          "name": "_tokenID",
          "type": "uint256"
        }
      ],
      "name": "unstake",
      "outputs": [],
      "stateMutability": "nonpayable",
      "type": "function"
    }
  ],
  "bytecode": "0x6080604052600a60055534801561001557600080fd5b5061003261002761003760201b60201c565b61003f60201b60201c565b610103565b600033905090565b60008060009054906101000a900473ffffffffffffffffffffffffffffffffffffffff169050816000806101000a81548173ffffffffffffffffffffffffffffffffffffffff021916908373ffffffffffffffffffffffffffffffffffffffff1602179055508173ffffffffffffffffffffffffffffffffffffffff168173ffffffffffffffffffffffffffffffffffffffff167f8be0079c531659141344cd1fd0a4f28419497f9722a3daafe3b4186f6b6457e060405160405180910390a35050565b611b3b806101126000396000f3fe608060405234801561001057600080fd5b50600436106100f55760003560e01c80638da5cb5b11610097578063d1058e5911610066578063d1058e591461024e578063f2fde38b14610258578063f3c1338714610274578063f9f87c1814610290576100f5565b80638da5cb5b146101c457806391b66fd5146101e257806397c0ffbf14610200578063a694fc3a14610232576100f5565b80632e17de78116100d35780632e17de7814610166578063379607f514610182578063715018a61461019e5780638aee8127146101a8576100f5565b80630e469a7c146100fa578063150b7a0214610118578063165defa414610148575b600080fd5b6101026102c0565b60405161010f91906111b1565b60405180910390f35b610132600480360381019061012d91906112cc565b61050c565b60405161013f919061138f565b60405180910390f35b610150610521565b60405161015d91906113b9565b60405180910390f35b610180600480360381019061017b91906113d4565b610527565b005b61019c600480360381019061019791906113d4565b6105e2565b005b6101a66105ee565b005b6101c260048036038101906101bd919061143f565b610602565b005b6101cc61064e565b6040516101d9919061147b565b60405180910390f35b6101ea610677565b6040516101f791906113b9565b60405180910390f35b61021a600480360381019061021591906113d4565b61067d565b60405161022993929190611496565b60405180910390f35b61024c600480360381019061024791906113d4565b6106c7565b005b6102566109cf565b005b610272600480360381019061026d91906114cd565b610a21565b005b61028e60048036038101906102899190611538565b610aa4565b005b6102aa60048036038101906102a591906113d4565b610af0565b6040516102b791906113b9565b60405180910390f35b60606000600260009054906101000a900473ffffffffffffffffffffffffffffffffffffffff1673ffffffffffffffffffffffffffffffffffffffff1663d5abeb016040518163ffffffff1660e01b8152600401602060405180830381865afa158015610331573d6000803e3d6000fd5b505050506040513d601f19601f82011682018060405250810190610355919061157a565b905060008167ffffffffffffffff811115610373576103726115a7565b5b6040519080825280602002602001820160405280156103a15781602001602082028036833780820191505090505b5090506000805b8381101561045b573373ffffffffffffffffffffffffffffffffffffffff166003600083815260200190815260200160002060020160009054906101000a900473ffffffffffffffffffffffffffffffffffffffff1673ffffffffffffffffffffffffffffffffffffffff1603610448578083838151811061042d5761042c6115d6565b5b602002602001018181525050818061044490611634565b9250505b808061045390611634565b9150506103a8565b5060008167ffffffffffffffff811115610478576104776115a7565b5b6040519080825280602002602001820160405280156104a65781602001602082028036833780820191505090505b50905060005b82811015610501578381815181106104c7576104c66115d6565b5b60200260200101518282815181106104e2576104e16115d6565b5b60200260200101818152505080806104f990611634565b9150506104ac565b508094505050505090565b600063150b7a0260e01b905095945050505050565b60045481565b803373ffffffffffffffffffffffffffffffffffffffff166003600083815260200190815260200160002060020160009054906101000a900473ffffffffffffffffffffffffffffffffffffffff1673ffffffffffffffffffffffffffffffffffffffff16146105cc576040517f08c379a00000000000000000000000000000000000000000000000000000000081526004016105c3906116d9565b60405180910390fd5b6105d582610bda565b6105de82610db0565b5050565b6105eb81610bda565b50565b6105f6610f9f565b610600600061101d565b565b61060a610f9f565b80600160006101000a81548173ffffffffffffffffffffffffffffffffffffffff021916908373ffffffffffffffffffffffffffffffffffffffff16021790555050565b60008060009054906101000a900473ffffffffffffffffffffffffffffffffffffffff16905090565b60055481565b60036020528060005260406000206000915090508060000154908060010154908060020160009054906101000a900473ffffffffffffffffffffffffffffffffffffffff16905083565b803373ffffffffffffffffffffffffffffffffffffffff16600260009054906101000a900473ffffffffffffffffffffffffffffffffffffffff1673ffffffffffffffffffffffffffffffffffffffff16636352211e836040518263ffffffff1660e01b815260040161073a91906113b9565b602060405180830381865afa158015610757573d6000803e3d6000fd5b505050506040513d601f19601f8201168201806040525081019061077b919061170e565b73ffffffffffffffffffffffffffffffffffffffff16146107d1576040517f08c379a00000000000000000000000000000000000000000000000000000000081526004016107c890611787565b60405180910390fd5b600060036000848152602001908152602001600020600101541461082a576040517f08c379a0000000000000000000000000000000000000000000000000000000008152600401610821906117f3565b60405180910390fd5b600060405180606001604052808481526020014281526020013373ffffffffffffffffffffffffffffffffffffffff1681525090508060036000858152602001908152602001600020600082015181600001556020820151816001015560408201518160020160006101000a81548173ffffffffffffffffffffffffffffffffffffffff021916908373ffffffffffffffffffffffffffffffffffffffff160217905550905050600460008154809291906108e490611634565b91905055503373ffffffffffffffffffffffffffffffffffffffff167f1b52f0db6b5f755caa8f232eebe353a340637e6c55969d84b3ee0cee945aa4338442604051610931929190611813565b60405180910390a2600260009054906101000a900473ffffffffffffffffffffffffffffffffffffffff1673ffffffffffffffffffffffffffffffffffffffff166342842e0e3330866040518463ffffffff1660e01b81526004016109989392919061183c565b600060405180830381600087803b1580156109b257600080fd5b505af11580156109c6573d6000803e3d6000fd5b50505050505050565b60006109d96102c0565b905060005b8151811015610a1d57610a0a8282815181106109fd576109fc6115d6565b5b6020026020010151610bda565b8080610a1590611634565b9150506109de565b5050565b610a29610f9f565b600073ffffffffffffffffffffffffffffffffffffffff168173ffffffffffffffffffffffffffffffffffffffff1603610a98576040517f08c379a0000000000000000000000000000000000000000000000000000000008152600401610a8f906118e5565b60405180910390fd5b610aa18161101d565b50565b610aac610f9f565b80600260006101000a81548173ffffffffffffffffffffffffffffffffffffffff021916908373ffffffffffffffffffffffffffffffffffffffff16021790555050565b6000813373ffffffffffffffffffffffffffffffffffffffff166003600083815260200190815260200160002060020160009054906101000a900473ffffffffffffffffffffffffffffffffffffffff1673ffffffffffffffffffffffffffffffffffffffff1614610b97576040517f08c379a0000000000000000000000000000000000000000000000000000000008152600401610b8e906116d9565b60405180910390fd5b6001600554600360008681526020019081526020016000206001015442610bbe9190611905565b610bc89190611939565b610bd291906119aa565b915050919050565b803373ffffffffffffffffffffffffffffffffffffffff166003600083815260200190815260200160002060020160009054906101000a900473ffffffffffffffffffffffffffffffffffffffff1673ffffffffffffffffffffffffffffffffffffffff1614610c7f576040517f08c379a0000000000000000000000000000000000000000000000000000000008152600401610c76906116d9565b60405180910390fd5b60006001600554600360008681526020019081526020016000206001015442610ca89190611905565b610cb29190611939565b610cbc91906119aa565b905060008111610d01576040517f08c379a0000000000000000000000000000000000000000000000000000000008152600401610cf890611a27565b60405180910390fd5b426003600085815260200190815260200160002060010181905550600160009054906101000a900473ffffffffffffffffffffffffffffffffffffffff1673ffffffffffffffffffffffffffffffffffffffff166340c10f1933836040518363ffffffff1660e01b8152600401610d79929190611a47565b600060405180830381600087803b158015610d9357600080fd5b505af1158015610da7573d6000803e3d6000fd5b50505050505050565b803373ffffffffffffffffffffffffffffffffffffffff166003600083815260200190815260200160002060020160009054906101000a900473ffffffffffffffffffffffffffffffffffffffff1673ffffffffffffffffffffffffffffffffffffffff1614610e55576040517f08c379a0000000000000000000000000000000000000000000000000000000008152600401610e4c906116d9565b60405180910390fd5b6003600083815260200190815260200160002060008082016000905560018201600090556002820160006101000a81549073ffffffffffffffffffffffffffffffffffffffff0219169055505060046000815480929190610eb590611a70565b91905055503373ffffffffffffffffffffffffffffffffffffffff167f56be67a54226e3a39c5d1a710d2afc912ca5df1d89054cfeb3e65b47509ee9098342604051610f02929190611813565b60405180910390a2600260009054906101000a900473ffffffffffffffffffffffffffffffffffffffff1673ffffffffffffffffffffffffffffffffffffffff166323b872dd3033856040518463ffffffff1660e01b8152600401610f699392919061183c565b600060405180830381600087803b158015610f8357600080fd5b505af1158015610f97573d6000803e3d6000fd5b505050505050565b610fa76110e1565b73ffffffffffffffffffffffffffffffffffffffff16610fc561064e565b73ffffffffffffffffffffffffffffffffffffffff161461101b576040517f08c379a000000000000000000000000000000000000000000000000000000000815260040161101290611ae5565b60405180910390fd5b565b60008060009054906101000a900473ffffffffffffffffffffffffffffffffffffffff169050816000806101000a81548173ffffffffffffffffffffffffffffffffffffffff021916908373ffffffffffffffffffffffffffffffffffffffff1602179055508173ffffffffffffffffffffffffffffffffffffffff168173ffffffffffffffffffffffffffffffffffffffff167f8be0079c531659141344cd1fd0a4f28419497f9722a3daafe3b4186f6b6457e060405160405180910390a35050565b600033905090565b600081519050919050565b600082825260208201905092915050565b6000819050602082019050919050565b6000819050919050565b61112881611115565b82525050565b600061113a838361111f565b60208301905092915050565b6000602082019050919050565b600061115e826110e9565b61116881856110f4565b935061117383611105565b8060005b838110156111a457815161118b888261112e565b975061119683611146565b925050600181019050611177565b5085935050505092915050565b600060208201905081810360008301526111cb8184611153565b905092915050565b600080fd5b600080fd5b600073ffffffffffffffffffffffffffffffffffffffff82169050919050565b6000611208826111dd565b9050919050565b611218816111fd565b811461122357600080fd5b50565b6000813590506112358161120f565b92915050565b61124481611115565b811461124f57600080fd5b50565b6000813590506112618161123b565b92915050565b600080fd5b600080fd5b600080fd5b60008083601f84011261128c5761128b611267565b5b8235905067ffffffffffffffff8111156112a9576112a861126c565b5b6020830191508360018202830111156112c5576112c4611271565b5b9250929050565b6000806000806000608086880312156112e8576112e76111d3565b5b60006112f688828901611226565b955050602061130788828901611226565b945050604061131888828901611252565b935050606086013567ffffffffffffffff811115611339576113386111d8565b5b61134588828901611276565b92509250509295509295909350565b60007fffffffff0000000000000000000000000000000000000000000000000000000082169050919050565b61138981611354565b82525050565b60006020820190506113a46000830184611380565b92915050565b6113b381611115565b82525050565b60006020820190506113ce60008301846113aa565b92915050565b6000602082840312156113ea576113e96111d3565b5b60006113f884828501611252565b91505092915050565b600061140c826111fd565b9050919050565b61141c81611401565b811461142757600080fd5b50565b60008135905061143981611413565b92915050565b600060208284031215611455576114546111d3565b5b60006114638482850161142a565b91505092915050565b611475816111fd565b82525050565b6000602082019050611490600083018461146c565b92915050565b60006060820190506114ab60008301866113aa565b6114b860208301856113aa565b6114c5604083018461146c565b949350505050565b6000602082840312156114e3576114e26111d3565b5b60006114f184828501611226565b91505092915050565b6000611505826111fd565b9050919050565b611515816114fa565b811461152057600080fd5b50565b6000813590506115328161150c565b92915050565b60006020828403121561154e5761154d6111d3565b5b600061155c84828501611523565b91505092915050565b6000815190506115748161123b565b92915050565b6000602082840312156115905761158f6111d3565b5b600061159e84828501611565565b91505092915050565b7f4e487b7100000000000000000000000000000000000000000000000000000000600052604160045260246000fd5b7f4e487b7100000000000000000000000000000000000000000000000000000000600052603260045260246000fd5b7f4e487b7100000000000000000000000000000000000000000000000000000000600052601160045260246000fd5b600061163f82611115565b91507fffffffffffffffffffffffffffffffffffffffffffffffffffffffffffffffff820361167157611670611605565b5b600182019050919050565b600082825260208201905092915050565b7f4e6f7420746865205374616b6572000000000000000000000000000000000000600082015250565b60006116c3600e8361167c565b91506116ce8261168d565b602082019050919050565b600060208201905081810360008301526116f2816116b6565b9050919050565b6000815190506117088161120f565b92915050565b600060208284031215611724576117236111d3565b5b6000611732848285016116f9565b91505092915050565b7f4e6f7420746865204f576e657200000000000000000000000000000000000000600082015250565b6000611771600d8361167c565b915061177c8261173b565b602082019050919050565b600060208201905081810360008301526117a081611764565b9050919050565b7f416c7265616479207374616b6564000000000000000000000000000000000000600082015250565b60006117dd600e8361167c565b91506117e8826117a7565b602082019050919050565b6000602082019050818103600083015261180c816117d0565b9050919050565b600060408201905061182860008301856113aa565b61183560208301846113aa565b9392505050565b6000606082019050611851600083018661146c565b61185e602083018561146c565b61186b60408301846113aa565b949350505050565b7f4f776e61626c653a206e6577206f776e657220697320746865207a65726f206160008201527f6464726573730000000000000000000000000000000000000000000000000000602082015250565b60006118cf60268361167c565b91506118da82611873565b604082019050919050565b600060208201905081810360008301526118fe816118c2565b9050919050565b600061191082611115565b915061191b83611115565b925082820390508181111561193357611932611605565b5b92915050565b600061194482611115565b915061194f83611115565b925082820261195d81611115565b9150828204841483151761197457611973611605565b5b5092915050565b7f4e487b7100000000000000000000000000000000000000000000000000000000600052601260045260246000fd5b60006119b582611115565b91506119c083611115565b9250826119d0576119cf61197b565b5b828204905092915050565b7f4e6f7468696e6720746f20636c61696d00000000000000000000000000000000600082015250565b6000611a1160108361167c565b9150611a1c826119db565b602082019050919050565b60006020820190508181036000830152611a4081611a04565b9050919050565b6000604082019050611a5c600083018561146c565b611a6960208301846113aa565b9392505050565b6000611a7b82611115565b915060008203611a8e57611a8d611605565b5b600182039050919050565b7f4f776e61626c653a2063616c6c6572206973206e6f7420746865206f776e6572600082015250565b6000611acf60208361167c565b9150611ada82611a99565b602082019050919050565b60006020820190508181036000830152611afe81611ac2565b905091905056fea26469706673582212204cd3ffde25b8552783f75732353cb40bfaea96475e8906c3fdc4e2f46fa37e6064736f6c63430008110033",
  "linkReferences": {},
  "deployedLinkReferences": {}
}