{
  "_format": "hh-sol-artifact-1",
  "contractName": "MyAwesomeNFT_witheList",
  "sourceName": "contracts/myAwesomeNFT_whitelist.sol",
  "abi": [
    {
      "inputs": [
        {
          "internalType": "bytes32",
          "name": "_merkleroot",
          "type": "bytes32"
        }
      ],
      "stateMutability": "nonpayable",
      "type": "constructor"
    },
    {
      "anonymous": false,
      "inputs": [
        {
          "indexed": true,
          "internalType": "address",
          "name": "owner",
          "type": "address"
        },
        {
          "indexed": true,
          "internalType": "address",
          "name": "approved",
          "type": "address"
        },
        {
          "indexed": true,
          "internalType": "uint256",
          "name": "tokenId",
          "type": "uint256"
        }
      ],
      "name": "Approval",
      "type": "event"
    },
    {
      "anonymous": false,
      "inputs": [
        {
          "indexed": true,
          "internalType": "address",
          "name": "owner",
          "type": "address"
        },
        {
          "indexed": true,
          "internalType": "address",
          "name": "operator",
          "type": "address"
        },
        {
          "indexed": false,
          "internalType": "bool",
          "name": "approved",
          "type": "bool"
        }
      ],
      "name": "ApprovalForAll",
      "type": "event"
    },
    {
      "anonymous": false,
      "inputs": [
        {
          "indexed": true,
          "internalType": "address",
          "name": "previousOwner",
          "type": "address"
        },
        {
          "indexed": true,
          "internalType": "address",
          "name": "newOwner",
          "type": "address"
        }
      ],
      "name": "OwnershipTransferred",
      "type": "event"
    },
    {
      "anonymous": false,
      "inputs": [
        {
          "indexed": false,
          "internalType": "address",
          "name": "account",
          "type": "address"
        }
      ],
      "name": "Paused",
      "type": "event"
    },
    {
      "anonymous": false,
      "inputs": [
        {
          "indexed": true,
          "internalType": "address",
          "name": "from",
          "type": "address"
        },
        {
          "indexed": true,
          "internalType": "address",
          "name": "to",
          "type": "address"
        },
        {
          "indexed": true,
          "internalType": "uint256",
          "name": "tokenId",
          "type": "uint256"
        }
      ],
      "name": "Transfer",
      "type": "event"
    },
    {
      "anonymous": false,
      "inputs": [
        {
          "indexed": false,
          "internalType": "address",
          "name": "account",
          "type": "address"
        }
      ],
      "name": "Unpaused",
      "type": "event"
    },
    {
      "inputs": [
        {
          "internalType": "address",
          "name": "to",
          "type": "address"
        },
        {
          "internalType": "uint256",
          "name": "tokenId",
          "type": "uint256"
        }
      ],
      "name": "approve",
      "outputs": [],
      "stateMutability": "nonpayable",
      "type": "function"
    },
    {
      "inputs": [
        {
          "internalType": "address",
          "name": "owner",
          "type": "address"
        }
      ],
      "name": "balanceOf",
      "outputs": [
        {
          "internalType": "uint256",
          "name": "",
          "type": "uint256"
        }
      ],
      "stateMutability": "view",
      "type": "function"
    },
    {
      "inputs": [
        {
          "internalType": "address",
          "name": "",
          "type": "address"
        }
      ],
      "name": "claimedWhiteListNFTs",
      "outputs": [
        {
          "internalType": "bool",
          "name": "",
          "type": "bool"
        }
      ],
      "stateMutability": "view",
      "type": "function"
    },
    {
      "inputs": [
        {
          "internalType": "uint256",
          "name": "tokenId",
          "type": "uint256"
        }
      ],
      "name": "getApproved",
      "outputs": [
        {
          "internalType": "address",
          "name": "",
          "type": "address"
        }
      ],
      "stateMutability": "view",
      "type": "function"
    },
    {
      "inputs": [
        {
          "internalType": "address",
          "name": "owner",
          "type": "address"
        },
        {
          "internalType": "address",
          "name": "operator",
          "type": "address"
        }
      ],
      "name": "isApprovedForAll",
      "outputs": [
        {
          "internalType": "bool",
          "name": "",
          "type": "bool"
        }
      ],
      "stateMutability": "view",
      "type": "function"
    },
    {
      "inputs": [],
      "name": "maxSupply",
      "outputs": [
        {
          "internalType": "uint256",
          "name": "",
          "type": "uint256"
        }
      ],
      "stateMutability": "view",
      "type": "function"
    },
    {
      "inputs": [
        {
          "internalType": "uint256",
          "name": "_amount",
          "type": "uint256"
        }
      ],
      "name": "multipleMint",
      "outputs": [],
      "stateMutability": "payable",
      "type": "function"
    },
    {
      "inputs": [],
      "name": "name",
      "outputs": [
        {
          "internalType": "string",
          "name": "",
          "type": "string"
        }
      ],
      "stateMutability": "view",
      "type": "function"
    },
    {
      "inputs": [],
      "name": "owner",
      "outputs": [
        {
          "internalType": "address",
          "name": "",
          "type": "address"
        }
      ],
      "stateMutability": "view",
      "type": "function"
    },
    {
      "inputs": [
        {
          "internalType": "uint256",
          "name": "tokenId",
          "type": "uint256"
        }
      ],
      "name": "ownerOf",
      "outputs": [
        {
          "internalType": "address",
          "name": "",
          "type": "address"
        }
      ],
      "stateMutability": "view",
      "type": "function"
    },
    {
      "inputs": [],
      "name": "pause",
      "outputs": [],
      "stateMutability": "nonpayable",
      "type": "function"
    },
    {
      "inputs": [],
      "name": "paused",
      "outputs": [
        {
          "internalType": "bool",
          "name": "",
          "type": "bool"
        }
      ],
      "stateMutability": "view",
      "type": "function"
    },
    {
      "inputs": [],
      "name": "renounceOwnership",
      "outputs": [],
      "stateMutability": "nonpayable",
      "type": "function"
    },
    {
      "inputs": [
        {
          "internalType": "address",
          "name": "from",
          "type": "address"
        },
        {
          "internalType": "address",
          "name": "to",
          "type": "address"
        },
        {
          "internalType": "uint256",
          "name": "tokenId",
          "type": "uint256"
        }
      ],
      "name": "safeTransferFrom",
      "outputs": [],
      "stateMutability": "nonpayable",
      "type": "function"
    },
    {
      "inputs": [
        {
          "internalType": "address",
          "name": "from",
          "type": "address"
        },
        {
          "internalType": "address",
          "name": "to",
          "type": "address"
        },
        {
          "internalType": "uint256",
          "name": "tokenId",
          "type": "uint256"
        },
        {
          "internalType": "bytes",
          "name": "data",
          "type": "bytes"
        }
      ],
      "name": "safeTransferFrom",
      "outputs": [],
      "stateMutability": "nonpayable",
      "type": "function"
    },
    {
      "inputs": [
        {
          "internalType": "address",
          "name": "operator",
          "type": "address"
        },
        {
          "internalType": "bool",
          "name": "approved",
          "type": "bool"
        }
      ],
      "name": "setApprovalForAll",
      "outputs": [],
      "stateMutability": "nonpayable",
      "type": "function"
    },
    {
      "inputs": [
        {
          "internalType": "string",
          "name": "_value",
          "type": "string"
        }
      ],
      "name": "setBaseUri",
      "outputs": [],
      "stateMutability": "nonpayable",
      "type": "function"
    },
    {
      "inputs": [
        {
          "internalType": "string",
          "name": "_value",
          "type": "string"
        }
      ],
      "name": "setDefaultUri",
      "outputs": [],
      "stateMutability": "nonpayable",
      "type": "function"
    },
    {
      "inputs": [
        {
          "internalType": "bytes4",
          "name": "interfaceId",
          "type": "bytes4"
        }
      ],
      "name": "supportsInterface",
      "outputs": [
        {
          "internalType": "bool",
          "name": "",
          "type": "bool"
        }
      ],
      "stateMutability": "view",
      "type": "function"
    },
    {
      "inputs": [],
      "name": "symbol",
      "outputs": [
        {
          "internalType": "string",
          "name": "",
          "type": "string"
        }
      ],
      "stateMutability": "view",
      "type": "function"
    },
    {
      "inputs": [
        {
          "internalType": "uint256",
          "name": "index",
          "type": "uint256"
        }
      ],
      "name": "tokenByIndex",
      "outputs": [
        {
          "internalType": "uint256",
          "name": "",
          "type": "uint256"
        }
      ],
      "stateMutability": "view",
      "type": "function"
    },
    {
      "inputs": [
        {
          "internalType": "address",
          "name": "owner",
          "type": "address"
        },
        {
          "internalType": "uint256",
          "name": "index",
          "type": "uint256"
        }
      ],
      "name": "tokenOfOwnerByIndex",
      "outputs": [
        {
          "internalType": "uint256",
          "name": "",
          "type": "uint256"
        }
      ],
      "stateMutability": "view",
      "type": "function"
    },
    {
      "inputs": [],
      "name": "tokenPrice",
      "outputs": [
        {
          "internalType": "uint256",
          "name": "",
          "type": "uint256"
        }
      ],
      "stateMutability": "view",
      "type": "function"
    },
    {
      "inputs": [
        {
          "internalType": "uint256",
          "name": "tokenId",
          "type": "uint256"
        }
      ],
      "name": "tokenURI",
      "outputs": [
        {
          "internalType": "string",
          "name": "",
          "type": "string"
        }
      ],
      "stateMutability": "view",
      "type": "function"
    },
    {
      "inputs": [],
      "name": "totalSupply",
      "outputs": [
        {
          "internalType": "uint256",
          "name": "",
          "type": "uint256"
        }
      ],
      "stateMutability": "view",
      "type": "function"
    },
    {
      "inputs": [
        {
          "internalType": "address",
          "name": "from",
          "type": "address"
        },
        {
          "internalType": "address",
          "name": "to",
          "type": "address"
        },
        {
          "internalType": "uint256",
          "name": "tokenId",
          "type": "uint256"
        }
      ],
      "name": "transferFrom",
      "outputs": [],
      "stateMutability": "nonpayable",
      "type": "function"
    },
    {
      "inputs": [
        {
          "internalType": "address",
          "name": "newOwner",
          "type": "address"
        }
      ],
      "name": "transferOwnership",
      "outputs": [],
      "stateMutability": "nonpayable",
      "type": "function"
    },
    {
      "inputs": [],
      "name": "unitMint",
      "outputs": [],
      "stateMutability": "payable",
      "type": "function"
    },
    {
      "inputs": [],
      "name": "unpause",
      "outputs": [],
      "stateMutability": "nonpayable",
      "type": "function"
    },
    {
      "inputs": [
        {
          "internalType": "bytes32",
          "name": "_merkleroot",
          "type": "bytes32"
        }
      ],
      "name": "updateWhiteList",
      "outputs": [],
      "stateMutability": "nonpayable",
      "type": "function"
    },
    {
      "inputs": [
        {
          "internalType": "bytes32[]",
          "name": "_proof",
          "type": "bytes32[]"
        }
      ],
      "name": "whitheListMint",
      "outputs": [],
      "stateMutability": "payable",
      "type": "function"
    },
    {
      "inputs": [],
      "name": "withdrawMoney",
      "outputs": [],
      "stateMutability": "nonpayable",
      "type": "function"
    }
  ],
  "bytecode": "0x60806040526040518060400160405280600e81526020017f7777772e676f6f676c652e636f6d000000000000000000000000000000000000815250601090816200004a919062000505565b5060405180602001604052806000815250601190816200006b919062000505565b5066038d7ea4c68000601255600a6013553480156200008957600080fd5b5060405162004e4438038062004e448339818101604052810190620000af91906200062c565b6040518060400160405280600a81526020017f43727970746f43617473000000000000000000000000000000000000000000008152506040518060400160405280600481526020017f434154530000000000000000000000000000000000000000000000000000000081525081600090816200012c919062000505565b5080600190816200013e919062000505565b5050506200016162000155620001bd60201b60201c565b620001c560201b60201c565b6000600b60146101000a81548160ff0219169083151502179055506001600c8190555060405180606001604052806036815260200162004e0e6036913960119081620001ae919062000505565b5080600f81905550506200065e565b600033905090565b6000600b60009054906101000a900473ffffffffffffffffffffffffffffffffffffffff16905081600b60006101000a81548173ffffffffffffffffffffffffffffffffffffffff021916908373ffffffffffffffffffffffffffffffffffffffff1602179055508173ffffffffffffffffffffffffffffffffffffffff168173ffffffffffffffffffffffffffffffffffffffff167f8be0079c531659141344cd1fd0a4f28419497f9722a3daafe3b4186f6b6457e060405160405180910390a35050565b600081519050919050565b7f4e487b7100000000000000000000000000000000000000000000000000000000600052604160045260246000fd5b7f4e487b7100000000000000000000000000000000000000000000000000000000600052602260045260246000fd5b600060028204905060018216806200030d57607f821691505b602082108103620003235762000322620002c5565b5b50919050565b60008190508160005260206000209050919050565b60006020601f8301049050919050565b600082821b905092915050565b6000600883026200038d7fffffffffffffffffffffffffffffffffffffffffffffffffffffffffffffffff826200034e565b6200039986836200034e565b95508019841693508086168417925050509392505050565b6000819050919050565b6000819050919050565b6000620003e6620003e0620003da84620003b1565b620003bb565b620003b1565b9050919050565b6000819050919050565b6200040283620003c5565b6200041a6200041182620003ed565b8484546200035b565b825550505050565b600090565b6200043162000422565b6200043e818484620003f7565b505050565b5b8181101562000466576200045a60008262000427565b60018101905062000444565b5050565b601f821115620004b5576200047f8162000329565b6200048a846200033e565b810160208510156200049a578190505b620004b2620004a9856200033e565b83018262000443565b50505b505050565b600082821c905092915050565b6000620004da60001984600802620004ba565b1980831691505092915050565b6000620004f58383620004c7565b9150826002028217905092915050565b62000510826200028b565b67ffffffffffffffff8111156200052c576200052b62000296565b5b620005388254620002f4565b620005458282856200046a565b600060209050601f8311600181146200057d576000841562000568578287015190505b620005748582620004e7565b865550620005e4565b601f1984166200058d8662000329565b60005b82811015620005b75784890151825560018201915060208501945060208101905062000590565b86831015620005d75784890151620005d3601f891682620004c7565b8355505b6001600288020188555050505b505050505050565b600080fd5b6000819050919050565b6200060681620005f1565b81146200061257600080fd5b50565b6000815190506200062681620005fb565b92915050565b600060208284031215620006455762000644620005ec565b5b6000620006558482850162000615565b91505092915050565b6147a0806200066e6000396000f3fe6080604052600436106101e35760003560e01c806375895b1311610102578063ac44600211610095578063d5abeb0111610064578063d5abeb011461068f578063e985e9c5146106ba578063f2fde38b146106f7578063f487c01d14610720576101e3565b8063ac446002146105f6578063b88d4fde1461060d578063c18d4cf714610636578063c87b56dd14610652576101e3565b80638da5cb5b116100d15780638da5cb5b1461054e57806395d89b4114610579578063a0bcfc7f146105a4578063a22cb465146105cd576101e3565b806375895b13146104b357806376a0fc22146104cf5780637ff9b5961461050c5780638456cb5914610537576101e3565b806342842e0e1161017a5780635c975abb116101495780635c975abb146103f75780636352211e1461042257806370a082311461045f578063715018a61461049c576101e3565b806342842e0e1461035e578063466a18de146103875780634f6ccce7146103b057806353888e16146103ed576101e3565b806318160ddd116101b657806318160ddd146102b657806323b872dd146102e15780632f745c591461030a5780633f4ba83a14610347576101e3565b806301ffc9a7146101e857806306fdde0314610225578063081812fc14610250578063095ea7b31461028d575b600080fd5b3480156101f457600080fd5b5061020f600480360381019061020a9190612ddf565b610749565b60405161021c9190612e27565b60405180910390f35b34801561023157600080fd5b5061023a61075b565b6040516102479190612ed2565b60405180910390f35b34801561025c57600080fd5b5061027760048036038101906102729190612f2a565b6107ed565b6040516102849190612f98565b60405180910390f35b34801561029957600080fd5b506102b460048036038101906102af9190612fdf565b610833565b005b3480156102c257600080fd5b506102cb61094a565b6040516102d8919061302e565b60405180910390f35b3480156102ed57600080fd5b5061030860048036038101906103039190613049565b610957565b005b34801561031657600080fd5b50610331600480360381019061032c9190612fdf565b6109b7565b60405161033e919061302e565b60405180910390f35b34801561035357600080fd5b5061035c610a5c565b005b34801561036a57600080fd5b5061038560048036038101906103809190613049565b610a6e565b005b34801561039357600080fd5b506103ae60048036038101906103a991906131d1565b610a8e565b005b3480156103bc57600080fd5b506103d760048036038101906103d29190612f2a565b610aa9565b6040516103e4919061302e565b60405180910390f35b6103f5610b1a565b005b34801561040357600080fd5b5061040c610bf6565b6040516104199190612e27565b60405180910390f35b34801561042e57600080fd5b5061044960048036038101906104449190612f2a565b610c0d565b6040516104569190612f98565b60405180910390f35b34801561046b57600080fd5b506104866004803603810190610481919061321a565b610c93565b604051610493919061302e565b60405180910390f35b3480156104a857600080fd5b506104b1610d4a565b005b6104cd60048036038101906104c89190612f2a565b610d5e565b005b3480156104db57600080fd5b506104f660048036038101906104f1919061321a565b610e64565b6040516105039190612e27565b60405180910390f35b34801561051857600080fd5b50610521610e84565b60405161052e919061302e565b60405180910390f35b34801561054357600080fd5b5061054c610e8a565b005b34801561055a57600080fd5b50610563610e9c565b6040516105709190612f98565b60405180910390f35b34801561058557600080fd5b5061058e610ec6565b60405161059b9190612ed2565b60405180910390f35b3480156105b057600080fd5b506105cb60048036038101906105c691906131d1565b610f58565b005b3480156105d957600080fd5b506105f460048036038101906105ef9190613273565b610f73565b005b34801561060257600080fd5b5061060b610f89565b005b34801561061957600080fd5b50610634600480360381019061062f9190613354565b610fea565b005b610650600480360381019061064b91906134d5565b61104c565b005b34801561065e57600080fd5b5061067960048036038101906106749190612f2a565b611212565b6040516106869190612ed2565b60405180910390f35b34801561069b57600080fd5b506106a46112fe565b6040516106b1919061302e565b60405180910390f35b3480156106c657600080fd5b506106e160048036038101906106dc919061351e565b611304565b6040516106ee9190612e27565b60405180910390f35b34801561070357600080fd5b5061071e6004803603810190610719919061321a565b611398565b005b34801561072c57600080fd5b506107476004803603810190610742919061355e565b61141b565b005b60006107548261142d565b9050919050565b60606000805461076a906135ba565b80601f0160208091040260200160405190810160405280929190818152602001828054610796906135ba565b80156107e35780601f106107b8576101008083540402835291602001916107e3565b820191906000526020600020905b8154815290600101906020018083116107c657829003601f168201915b5050505050905090565b60006107f8826114a7565b6004600083815260200190815260200160002060009054906101000a900473ffffffffffffffffffffffffffffffffffffffff169050919050565b600061083e82610c0d565b90508073ffffffffffffffffffffffffffffffffffffffff168373ffffffffffffffffffffffffffffffffffffffff16036108ae576040517f08c379a00000000000000000000000000000000000000000000000000000000081526004016108a59061365d565b60405180910390fd5b8073ffffffffffffffffffffffffffffffffffffffff166108cd6114f2565b73ffffffffffffffffffffffffffffffffffffffff1614806108fc57506108fb816108f66114f2565b611304565b5b61093b576040517f08c379a0000000000000000000000000000000000000000000000000000000008152600401610932906136ef565b60405180910390fd5b61094583836114fa565b505050565b6000600980549050905090565b6109686109626114f2565b826115b3565b6109a7576040517f08c379a000000000000000000000000000000000000000000000000000000000815260040161099e90613781565b60405180910390fd5b6109b2838383611648565b505050565b60006109c283610c93565b8210610a03576040517f08c379a00000000000000000000000000000000000000000000000000000000081526004016109fa90613813565b60405180910390fd5b600760008473ffffffffffffffffffffffffffffffffffffffff1673ffffffffffffffffffffffffffffffffffffffff168152602001908152602001600020600083815260200190815260200160002054905092915050565b610a64611941565b610a6c6119bf565b565b610a8983838360405180602001604052806000815250610fea565b505050565b610a96611941565b8060109081610aa591906139df565b5050565b6000610ab361094a565b8210610af4576040517f08c379a0000000000000000000000000000000000000000000000000000000008152600401610aeb90613b23565b60405180910390fd5b60098281548110610b0857610b07613b43565b5b90600052602060002001549050919050565b610b22611a22565b610b2a611a6c565b601254341015610b6f576040517f08c379a0000000000000000000000000000000000000000000000000000000008152600401610b6690613bbe565b60405180910390fd5b6013546001610b7e600d611abb565b610b889190613c0d565b1115610bc9576040517f08c379a0000000000000000000000000000000000000000000000000000000008152600401610bc090613c8d565b60405180910390fd5b610bd3600d611ac9565b6000610bdf600d611abb565b9050610beb3382611adf565b50610bf4611afd565b565b6000600b60149054906101000a900460ff16905090565b600080610c1983611b07565b9050600073ffffffffffffffffffffffffffffffffffffffff168173ffffffffffffffffffffffffffffffffffffffff1603610c8a576040517f08c379a0000000000000000000000000000000000000000000000000000000008152600401610c8190613cf9565b60405180910390fd5b80915050919050565b60008073ffffffffffffffffffffffffffffffffffffffff168273ffffffffffffffffffffffffffffffffffffffff1603610d03576040517f08c379a0000000000000000000000000000000000000000000000000000000008152600401610cfa90613d8b565b60405180910390fd5b600360008373ffffffffffffffffffffffffffffffffffffffff1673ffffffffffffffffffffffffffffffffffffffff168152602001908152602001600020549050919050565b610d52611941565b610d5c6000611b44565b565b610d66611a22565b610d6e611a6c565b80601254610d7c9190613dab565b341015610dbe576040517f08c379a0000000000000000000000000000000000000000000000000000000008152600401610db590613bbe565b60405180910390fd5b60135481610dcc600d611abb565b610dd69190613c0d565b1115610e17576040517f08c379a0000000000000000000000000000000000000000000000000000000008152600401610e0e90613c8d565b60405180910390fd5b60005b81811015610e5857610e2c600d611ac9565b6000610e38600d611abb565b9050610e443382611adf565b508080610e5090613ded565b915050610e1a565b50610e61611afd565b50565b600e6020528060005260406000206000915054906101000a900460ff1681565b60125481565b610e92611941565b610e9a611c0a565b565b6000600b60009054906101000a900473ffffffffffffffffffffffffffffffffffffffff16905090565b606060018054610ed5906135ba565b80601f0160208091040260200160405190810160405280929190818152602001828054610f01906135ba565b8015610f4e5780601f10610f2357610100808354040283529160200191610f4e565b820191906000526020600020905b815481529060010190602001808311610f3157829003601f168201915b5050505050905090565b610f60611941565b8060119081610f6f91906139df565b5050565b610f85610f7e6114f2565b8383611c6d565b5050565b610f91611941565b610f99611a6c565b3373ffffffffffffffffffffffffffffffffffffffff166108fc479081150290604051600060405180830381858888f19350505050158015610fdf573d6000803e3d6000fd5b50610fe8611afd565b565b610ffb610ff56114f2565b836115b3565b61103a576040517f08c379a000000000000000000000000000000000000000000000000000000000815260040161103190613781565b60405180910390fd5b61104684848484611dd9565b50505050565b611054611a22565b61105c611a6c565b6110663382611e35565b6110a5576040517f08c379a000000000000000000000000000000000000000000000000000000000815260040161109c90613e81565b60405180910390fd5b600e60003373ffffffffffffffffffffffffffffffffffffffff1673ffffffffffffffffffffffffffffffffffffffff16815260200190815260200160002060009054906101000a900460ff1615611132576040517f08c379a000000000000000000000000000000000000000000000000000000000815260040161112990613eed565b60405180910390fd5b6013546001611141600d611abb565b61114b9190613c0d565b111561118c576040517f08c379a000000000000000000000000000000000000000000000000000000000815260040161118390613c8d565b60405180910390fd5b611196600d611ac9565b60006111a2600d611abb565b90506001600e60003373ffffffffffffffffffffffffffffffffffffffff1673ffffffffffffffffffffffffffffffffffffffff16815260200190815260200160002060006101000a81548160ff0219169083151502179055506112063382611adf565b5061120f611afd565b50565b606061121d82611e77565b61122657600080fd5b6000611230611eb8565b905060008151036112cb5760108054611248906135ba565b80601f0160208091040260200160405190810160405280929190818152602001828054611274906135ba565b80156112c15780601f10611296576101008083540402835291602001916112c1565b820191906000526020600020905b8154815290600101906020018083116112a457829003601f168201915b50505050506112f6565b806112d584611f4a565b6040516020016112e6929190613f95565b6040516020818303038152906040525b915050919050565b60135481565b6000600560008473ffffffffffffffffffffffffffffffffffffffff1673ffffffffffffffffffffffffffffffffffffffff16815260200190815260200160002060008373ffffffffffffffffffffffffffffffffffffffff1673ffffffffffffffffffffffffffffffffffffffff16815260200190815260200160002060009054906101000a900460ff16905092915050565b6113a0611941565b600073ffffffffffffffffffffffffffffffffffffffff168173ffffffffffffffffffffffffffffffffffffffff160361140f576040517f08c379a000000000000000000000000000000000000000000000000000000000815260040161140690614036565b60405180910390fd5b61141881611b44565b50565b611423611941565b80600f8190555050565b60007f780e9d63000000000000000000000000000000000000000000000000000000007bffffffffffffffffffffffffffffffffffffffffffffffffffffffff1916827bffffffffffffffffffffffffffffffffffffffffffffffffffffffff191614806114a0575061149f82612018565b5b9050919050565b6114b081611e77565b6114ef576040517f08c379a00000000000000000000000000000000000000000000000000000000081526004016114e690613cf9565b60405180910390fd5b50565b600033905090565b816004600083815260200190815260200160002060006101000a81548173ffffffffffffffffffffffffffffffffffffffff021916908373ffffffffffffffffffffffffffffffffffffffff160217905550808273ffffffffffffffffffffffffffffffffffffffff1661156d83610c0d565b73ffffffffffffffffffffffffffffffffffffffff167f8c5be1e5ebec7d5bd14f71427d1e84f3dd0314c0f7b2291e5b200ac8c7c3b92560405160405180910390a45050565b6000806115bf83610c0d565b90508073ffffffffffffffffffffffffffffffffffffffff168473ffffffffffffffffffffffffffffffffffffffff16148061160157506116008185611304565b5b8061163f57508373ffffffffffffffffffffffffffffffffffffffff16611627846107ed565b73ffffffffffffffffffffffffffffffffffffffff16145b91505092915050565b8273ffffffffffffffffffffffffffffffffffffffff1661166882610c0d565b73ffffffffffffffffffffffffffffffffffffffff16146116be576040517f08c379a00000000000000000000000000000000000000000000000000000000081526004016116b5906140c8565b60405180910390fd5b600073ffffffffffffffffffffffffffffffffffffffff168273ffffffffffffffffffffffffffffffffffffffff160361172d576040517f08c379a00000000000000000000000000000000000000000000000000000000081526004016117249061415a565b60405180910390fd5b61173a83838360016120fa565b8273ffffffffffffffffffffffffffffffffffffffff1661175a82610c0d565b73ffffffffffffffffffffffffffffffffffffffff16146117b0576040517f08c379a00000000000000000000000000000000000000000000000000000000081526004016117a7906140c8565b60405180910390fd5b6004600082815260200190815260200160002060006101000a81549073ffffffffffffffffffffffffffffffffffffffff02191690556001600360008573ffffffffffffffffffffffffffffffffffffffff1673ffffffffffffffffffffffffffffffffffffffff168152602001908152602001600020600082825403925050819055506001600360008473ffffffffffffffffffffffffffffffffffffffff1673ffffffffffffffffffffffffffffffffffffffff16815260200190815260200160002060008282540192505081905550816002600083815260200190815260200160002060006101000a81548173ffffffffffffffffffffffffffffffffffffffff021916908373ffffffffffffffffffffffffffffffffffffffff160217905550808273ffffffffffffffffffffffffffffffffffffffff168473ffffffffffffffffffffffffffffffffffffffff167fddf252ad1be2c89b69c2b068fc378daa952ba7f163c4a11628f55a4df523b3ef60405160405180910390a461193c838383600161210c565b505050565b6119496114f2565b73ffffffffffffffffffffffffffffffffffffffff16611967610e9c565b73ffffffffffffffffffffffffffffffffffffffff16146119bd576040517f08c379a00000000000000000000000000000000000000000000000000000000081526004016119b4906141c6565b60405180910390fd5b565b6119c7612112565b6000600b60146101000a81548160ff0219169083151502179055507f5db9ee0a495bf2e6ff9c91a7834c1ba4fdd244a5e8aa4e537bd38aeae4b073aa611a0b6114f2565b604051611a189190612f98565b60405180910390a1565b611a2a610bf6565b15611a6a576040517f08c379a0000000000000000000000000000000000000000000000000000000008152600401611a6190614232565b60405180910390fd5b565b6002600c5403611ab1576040517f08c379a0000000000000000000000000000000000000000000000000000000008152600401611aa89061429e565b60405180910390fd5b6002600c81905550565b600081600001549050919050565b6001816000016000828254019250508190555050565b611af982826040518060200160405280600081525061215b565b5050565b6001600c81905550565b60006002600083815260200190815260200160002060009054906101000a900473ffffffffffffffffffffffffffffffffffffffff169050919050565b6000600b60009054906101000a900473ffffffffffffffffffffffffffffffffffffffff16905081600b60006101000a81548173ffffffffffffffffffffffffffffffffffffffff021916908373ffffffffffffffffffffffffffffffffffffffff1602179055508173ffffffffffffffffffffffffffffffffffffffff168173ffffffffffffffffffffffffffffffffffffffff167f8be0079c531659141344cd1fd0a4f28419497f9722a3daafe3b4186f6b6457e060405160405180910390a35050565b611c12611a22565b6001600b60146101000a81548160ff0219169083151502179055507f62e78cea01bee320cd4e420270b5ea74000d11b0c9f74754ebdbfc544b05a258611c566114f2565b604051611c639190612f98565b60405180910390a1565b8173ffffffffffffffffffffffffffffffffffffffff168373ffffffffffffffffffffffffffffffffffffffff1603611cdb576040517f08c379a0000000000000000000000000000000000000000000000000000000008152600401611cd29061430a565b60405180910390fd5b80600560008573ffffffffffffffffffffffffffffffffffffffff1673ffffffffffffffffffffffffffffffffffffffff16815260200190815260200160002060008473ffffffffffffffffffffffffffffffffffffffff1673ffffffffffffffffffffffffffffffffffffffff16815260200190815260200160002060006101000a81548160ff0219169083151502179055508173ffffffffffffffffffffffffffffffffffffffff168373ffffffffffffffffffffffffffffffffffffffff167f17307eab39ab6107e8899845ad3d59bd9653f200f220920489ca2b5937696c3183604051611dcc9190612e27565b60405180910390a3505050565b611de4848484611648565b611df0848484846121b6565b611e2f576040517f08c379a0000000000000000000000000000000000000000000000000000000008152600401611e269061439c565b60405180910390fd5b50505050565b60008083604051602001611e499190614404565b604051602081830303815290604052805190602001209050611e6e83600f548361233d565b91505092915050565b60008073ffffffffffffffffffffffffffffffffffffffff16611e9983611b07565b73ffffffffffffffffffffffffffffffffffffffff1614159050919050565b606060118054611ec7906135ba565b80601f0160208091040260200160405190810160405280929190818152602001828054611ef3906135ba565b8015611f405780601f10611f1557610100808354040283529160200191611f40565b820191906000526020600020905b815481529060010190602001808311611f2357829003601f168201915b5050505050905090565b606060006001611f5984612354565b01905060008167ffffffffffffffff811115611f7857611f776130a6565b5b6040519080825280601f01601f191660200182016040528015611faa5781602001600182028036833780820191505090505b509050600082602001820190505b60011561200d578080600190039150507f3031323334353637383961626364656600000000000000000000000000000000600a86061a8153600a85816120015761200061441f565b5b04945060008503611fb8575b819350505050919050565b60007f80ac58cd000000000000000000000000000000000000000000000000000000007bffffffffffffffffffffffffffffffffffffffffffffffffffffffff1916827bffffffffffffffffffffffffffffffffffffffffffffffffffffffff191614806120e357507f5b5e139f000000000000000000000000000000000000000000000000000000007bffffffffffffffffffffffffffffffffffffffffffffffffffffffff1916827bffffffffffffffffffffffffffffffffffffffffffffffffffffffff1916145b806120f357506120f2826124a7565b5b9050919050565b61210684848484612511565b50505050565b50505050565b61211a610bf6565b612159576040517f08c379a00000000000000000000000000000000000000000000000000000000081526004016121509061449a565b60405180910390fd5b565b612165838361266f565b61217260008484846121b6565b6121b1576040517f08c379a00000000000000000000000000000000000000000000000000000000081526004016121a89061439c565b60405180910390fd5b505050565b60006121d78473ffffffffffffffffffffffffffffffffffffffff1661288c565b15612330578373ffffffffffffffffffffffffffffffffffffffff1663150b7a026122006114f2565b8786866040518563ffffffff1660e01b8152600401612222949392919061450f565b6020604051808303816000875af192505050801561225e57506040513d601f19601f8201168201806040525081019061225b9190614570565b60015b6122e0573d806000811461228e576040519150601f19603f3d011682016040523d82523d6000602084013e612293565b606091505b5060008151036122d8576040517f08c379a00000000000000000000000000000000000000000000000000000000081526004016122cf9061439c565b60405180910390fd5b805181602001fd5b63150b7a0260e01b7bffffffffffffffffffffffffffffffffffffffffffffffffffffffff1916817bffffffffffffffffffffffffffffffffffffffffffffffffffffffff191614915050612335565b600190505b949350505050565b60008261234a85846128af565b1490509392505050565b600080600090507a184f03e93ff9f4daa797ed6e38ed64bf6a1f01000000000000000083106123b2577a184f03e93ff9f4daa797ed6e38ed64bf6a1f01000000000000000083816123a8576123a761441f565b5b0492506040810190505b6d04ee2d6d415b85acef810000000083106123ef576d04ee2d6d415b85acef810000000083816123e5576123e461441f565b5b0492506020810190505b662386f26fc10000831061241e57662386f26fc1000083816124145761241361441f565b5b0492506010810190505b6305f5e1008310612447576305f5e100838161243d5761243c61441f565b5b0492506008810190505b612710831061246c5761271083816124625761246161441f565b5b0492506004810190505b6064831061248f57606483816124855761248461441f565b5b0492506002810190505b600a831061249e576001810190505b80915050919050565b60007f01ffc9a7000000000000000000000000000000000000000000000000000000007bffffffffffffffffffffffffffffffffffffffffffffffffffffffff1916827bffffffffffffffffffffffffffffffffffffffffffffffffffffffff1916149050919050565b61251d84848484612905565b6001811115612561576040517f08c379a00000000000000000000000000000000000000000000000000000000081526004016125589061460f565b60405180910390fd5b6000829050600073ffffffffffffffffffffffffffffffffffffffff168573ffffffffffffffffffffffffffffffffffffffff16036125a8576125a381612a2b565b6125e7565b8373ffffffffffffffffffffffffffffffffffffffff168573ffffffffffffffffffffffffffffffffffffffff16146125e6576125e58582612a74565b5b5b600073ffffffffffffffffffffffffffffffffffffffff168473ffffffffffffffffffffffffffffffffffffffff16036126295761262481612be1565b612668565b8473ffffffffffffffffffffffffffffffffffffffff168473ffffffffffffffffffffffffffffffffffffffff1614612667576126668482612cb2565b5b5b5050505050565b600073ffffffffffffffffffffffffffffffffffffffff168273ffffffffffffffffffffffffffffffffffffffff16036126de576040517f08c379a00000000000000000000000000000000000000000000000000000000081526004016126d59061467b565b60405180910390fd5b6126e781611e77565b15612727576040517f08c379a000000000000000000000000000000000000000000000000000000000815260040161271e906146e7565b60405180910390fd5b6127356000838360016120fa565b61273e81611e77565b1561277e576040517f08c379a0000000000000000000000000000000000000000000000000000000008152600401612775906146e7565b60405180910390fd5b6001600360008473ffffffffffffffffffffffffffffffffffffffff1673ffffffffffffffffffffffffffffffffffffffff16815260200190815260200160002060008282540192505081905550816002600083815260200190815260200160002060006101000a81548173ffffffffffffffffffffffffffffffffffffffff021916908373ffffffffffffffffffffffffffffffffffffffff160217905550808273ffffffffffffffffffffffffffffffffffffffff16600073ffffffffffffffffffffffffffffffffffffffff167fddf252ad1be2c89b69c2b068fc378daa952ba7f163c4a11628f55a4df523b3ef60405160405180910390a461288860008383600161210c565b5050565b6000808273ffffffffffffffffffffffffffffffffffffffff163b119050919050565b60008082905060005b84518110156128fa576128e5828683815181106128d8576128d7613b43565b5b6020026020010151612d31565b915080806128f290613ded565b9150506128b8565b508091505092915050565b6001811115612a2557600073ffffffffffffffffffffffffffffffffffffffff168473ffffffffffffffffffffffffffffffffffffffff16146129995780600360008673ffffffffffffffffffffffffffffffffffffffff1673ffffffffffffffffffffffffffffffffffffffff16815260200190815260200160002060008282546129919190614707565b925050819055505b600073ffffffffffffffffffffffffffffffffffffffff168373ffffffffffffffffffffffffffffffffffffffff1614612a245780600360008573ffffffffffffffffffffffffffffffffffffffff1673ffffffffffffffffffffffffffffffffffffffff1681526020019081526020016000206000828254612a1c9190613c0d565b925050819055505b5b50505050565b600980549050600a600083815260200190815260200160002081905550600981908060018154018082558091505060019003906000526020600020016000909190919091505550565b60006001612a8184610c93565b612a8b9190614707565b9050600060086000848152602001908152602001600020549050818114612b70576000600760008673ffffffffffffffffffffffffffffffffffffffff1673ffffffffffffffffffffffffffffffffffffffff168152602001908152602001600020600084815260200190815260200160002054905080600760008773ffffffffffffffffffffffffffffffffffffffff1673ffffffffffffffffffffffffffffffffffffffff168152602001908152602001600020600084815260200190815260200160002081905550816008600083815260200190815260200160002081905550505b6008600084815260200190815260200160002060009055600760008573ffffffffffffffffffffffffffffffffffffffff1673ffffffffffffffffffffffffffffffffffffffff16815260200190815260200160002060008381526020019081526020016000206000905550505050565b60006001600980549050612bf59190614707565b90506000600a6000848152602001908152602001600020549050600060098381548110612c2557612c24613b43565b5b906000526020600020015490508060098381548110612c4757612c46613b43565b5b906000526020600020018190555081600a600083815260200190815260200160002081905550600a6000858152602001908152602001600020600090556009805480612c9657612c9561473b565b5b6001900381819060005260206000200160009055905550505050565b6000612cbd83610c93565b905081600760008573ffffffffffffffffffffffffffffffffffffffff1673ffffffffffffffffffffffffffffffffffffffff168152602001908152602001600020600083815260200190815260200160002081905550806008600084815260200190815260200160002081905550505050565b6000818310612d4957612d448284612d5c565b612d54565b612d538383612d5c565b5b905092915050565b600082600052816020526040600020905092915050565b6000604051905090565b600080fd5b600080fd5b60007fffffffff0000000000000000000000000000000000000000000000000000000082169050919050565b612dbc81612d87565b8114612dc757600080fd5b50565b600081359050612dd981612db3565b92915050565b600060208284031215612df557612df4612d7d565b5b6000612e0384828501612dca565b91505092915050565b60008115159050919050565b612e2181612e0c565b82525050565b6000602082019050612e3c6000830184612e18565b92915050565b600081519050919050565b600082825260208201905092915050565b60005b83811015612e7c578082015181840152602081019050612e61565b60008484015250505050565b6000601f19601f8301169050919050565b6000612ea482612e42565b612eae8185612e4d565b9350612ebe818560208601612e5e565b612ec781612e88565b840191505092915050565b60006020820190508181036000830152612eec8184612e99565b905092915050565b6000819050919050565b612f0781612ef4565b8114612f1257600080fd5b50565b600081359050612f2481612efe565b92915050565b600060208284031215612f4057612f3f612d7d565b5b6000612f4e84828501612f15565b91505092915050565b600073ffffffffffffffffffffffffffffffffffffffff82169050919050565b6000612f8282612f57565b9050919050565b612f9281612f77565b82525050565b6000602082019050612fad6000830184612f89565b92915050565b612fbc81612f77565b8114612fc757600080fd5b50565b600081359050612fd981612fb3565b92915050565b60008060408385031215612ff657612ff5612d7d565b5b600061300485828601612fca565b925050602061301585828601612f15565b9150509250929050565b61302881612ef4565b82525050565b6000602082019050613043600083018461301f565b92915050565b60008060006060848603121561306257613061612d7d565b5b600061307086828701612fca565b935050602061308186828701612fca565b925050604061309286828701612f15565b9150509250925092565b600080fd5b600080fd5b7f4e487b7100000000000000000000000000000000000000000000000000000000600052604160045260246000fd5b6130de82612e88565b810181811067ffffffffffffffff821117156130fd576130fc6130a6565b5b80604052505050565b6000613110612d73565b905061311c82826130d5565b919050565b600067ffffffffffffffff82111561313c5761313b6130a6565b5b61314582612e88565b9050602081019050919050565b82818337600083830152505050565b600061317461316f84613121565b613106565b9050828152602081018484840111156131905761318f6130a1565b5b61319b848285613152565b509392505050565b600082601f8301126131b8576131b761309c565b5b81356131c8848260208601613161565b91505092915050565b6000602082840312156131e7576131e6612d7d565b5b600082013567ffffffffffffffff81111561320557613204612d82565b5b613211848285016131a3565b91505092915050565b6000602082840312156132305761322f612d7d565b5b600061323e84828501612fca565b91505092915050565b61325081612e0c565b811461325b57600080fd5b50565b60008135905061326d81613247565b92915050565b6000806040838503121561328a57613289612d7d565b5b600061329885828601612fca565b92505060206132a98582860161325e565b9150509250929050565b600067ffffffffffffffff8211156132ce576132cd6130a6565b5b6132d782612e88565b9050602081019050919050565b60006132f76132f2846132b3565b613106565b905082815260208101848484011115613313576133126130a1565b5b61331e848285613152565b509392505050565b600082601f83011261333b5761333a61309c565b5b813561334b8482602086016132e4565b91505092915050565b6000806000806080858703121561336e5761336d612d7d565b5b600061337c87828801612fca565b945050602061338d87828801612fca565b935050604061339e87828801612f15565b925050606085013567ffffffffffffffff8111156133bf576133be612d82565b5b6133cb87828801613326565b91505092959194509250565b600067ffffffffffffffff8211156133f2576133f16130a6565b5b602082029050602081019050919050565b600080fd5b6000819050919050565b61341b81613408565b811461342657600080fd5b50565b60008135905061343881613412565b92915050565b600061345161344c846133d7565b613106565b9050808382526020820190506020840283018581111561347457613473613403565b5b835b8181101561349d57806134898882613429565b845260208401935050602081019050613476565b5050509392505050565b600082601f8301126134bc576134bb61309c565b5b81356134cc84826020860161343e565b91505092915050565b6000602082840312156134eb576134ea612d7d565b5b600082013567ffffffffffffffff81111561350957613508612d82565b5b613515848285016134a7565b91505092915050565b6000806040838503121561353557613534612d7d565b5b600061354385828601612fca565b925050602061355485828601612fca565b9150509250929050565b60006020828403121561357457613573612d7d565b5b600061358284828501613429565b91505092915050565b7f4e487b7100000000000000000000000000000000000000000000000000000000600052602260045260246000fd5b600060028204905060018216806135d257607f821691505b6020821081036135e5576135e461358b565b5b50919050565b7f4552433732313a20617070726f76616c20746f2063757272656e74206f776e6560008201527f7200000000000000000000000000000000000000000000000000000000000000602082015250565b6000613647602183612e4d565b9150613652826135eb565b604082019050919050565b600060208201905081810360008301526136768161363a565b9050919050565b7f4552433732313a20617070726f76652063616c6c6572206973206e6f7420746f60008201527f6b656e206f776e6572206f7220617070726f76656420666f7220616c6c000000602082015250565b60006136d9603d83612e4d565b91506136e48261367d565b604082019050919050565b60006020820190508181036000830152613708816136cc565b9050919050565b7f4552433732313a2063616c6c6572206973206e6f7420746f6b656e206f776e6560008201527f72206f7220617070726f76656400000000000000000000000000000000000000602082015250565b600061376b602d83612e4d565b91506137768261370f565b604082019050919050565b6000602082019050818103600083015261379a8161375e565b9050919050565b7f455243373231456e756d657261626c653a206f776e657220696e646578206f7560008201527f74206f6620626f756e6473000000000000000000000000000000000000000000602082015250565b60006137fd602b83612e4d565b9150613808826137a1565b604082019050919050565b6000602082019050818103600083015261382c816137f0565b9050919050565b60008190508160005260206000209050919050565b60006020601f8301049050919050565b600082821b905092915050565b6000600883026138957fffffffffffffffffffffffffffffffffffffffffffffffffffffffffffffffff82613858565b61389f8683613858565b95508019841693508086168417925050509392505050565b6000819050919050565b60006138dc6138d76138d284612ef4565b6138b7565b612ef4565b9050919050565b6000819050919050565b6138f6836138c1565b61390a613902826138e3565b848454613865565b825550505050565b600090565b61391f613912565b61392a8184846138ed565b505050565b5b8181101561394e57613943600082613917565b600181019050613930565b5050565b601f8211156139935761396481613833565b61396d84613848565b8101602085101561397c578190505b61399061398885613848565b83018261392f565b50505b505050565b600082821c905092915050565b60006139b660001984600802613998565b1980831691505092915050565b60006139cf83836139a5565b9150826002028217905092915050565b6139e882612e42565b67ffffffffffffffff811115613a0157613a006130a6565b5b613a0b82546135ba565b613a16828285613952565b600060209050601f831160018114613a495760008415613a37578287015190505b613a4185826139c3565b865550613aa9565b601f198416613a5786613833565b60005b82811015613a7f57848901518255600182019150602085019450602081019050613a5a565b86831015613a9c5784890151613a98601f8916826139a5565b8355505b6001600288020188555050505b505050505050565b7f455243373231456e756d657261626c653a20676c6f62616c20696e646578206f60008201527f7574206f6620626f756e64730000000000000000000000000000000000000000602082015250565b6000613b0d602c83612e4d565b9150613b1882613ab1565b604082019050919050565b60006020820190508181036000830152613b3c81613b00565b9050919050565b7f4e487b7100000000000000000000000000000000000000000000000000000000600052603260045260246000fd5b7f4e6f7420656e6f756768206d6f6e65792073656e740000000000000000000000600082015250565b6000613ba8601583612e4d565b9150613bb382613b72565b602082019050919050565b60006020820190508181036000830152613bd781613b9b565b9050919050565b7f4e487b7100000000000000000000000000000000000000000000000000000000600052601160045260246000fd5b6000613c1882612ef4565b9150613c2383612ef4565b9250828201905080821115613c3b57613c3a613bde565b5b92915050565b7f4e6f7420656e6f75676820746f6b656e2072656d61696e696e67000000000000600082015250565b6000613c77601a83612e4d565b9150613c8282613c41565b602082019050919050565b60006020820190508181036000830152613ca681613c6a565b9050919050565b7f4552433732313a20696e76616c696420746f6b656e2049440000000000000000600082015250565b6000613ce3601883612e4d565b9150613cee82613cad565b602082019050919050565b60006020820190508181036000830152613d1281613cd6565b9050919050565b7f4552433732313a2061646472657373207a65726f206973206e6f74206120766160008201527f6c6964206f776e65720000000000000000000000000000000000000000000000602082015250565b6000613d75602983612e4d565b9150613d8082613d19565b604082019050919050565b60006020820190508181036000830152613da481613d68565b9050919050565b6000613db682612ef4565b9150613dc183612ef4565b9250828202613dcf81612ef4565b91508282048414831517613de657613de5613bde565b5b5092915050565b6000613df882612ef4565b91507fffffffffffffffffffffffffffffffffffffffffffffffffffffffffffffffff8203613e2a57613e29613bde565b5b600182019050919050565b7f4e6f74206f6e207468652077686974656c697374000000000000000000000000600082015250565b6000613e6b601483612e4d565b9150613e7682613e35565b602082019050919050565b60006020820190508181036000830152613e9a81613e5e565b9050919050565b7f416c726561647920636c61696d65640000000000000000000000000000000000600082015250565b6000613ed7600f83612e4d565b9150613ee282613ea1565b602082019050919050565b60006020820190508181036000830152613f0681613eca565b9050919050565b600081905092915050565b6000613f2382612e42565b613f2d8185613f0d565b9350613f3d818560208601612e5e565b80840191505092915050565b7f2e6a736f6e000000000000000000000000000000000000000000000000000000600082015250565b6000613f7f600583613f0d565b9150613f8a82613f49565b600582019050919050565b6000613fa18285613f18565b9150613fad8284613f18565b9150613fb882613f72565b91508190509392505050565b7f4f776e61626c653a206e6577206f776e657220697320746865207a65726f206160008201527f6464726573730000000000000000000000000000000000000000000000000000602082015250565b6000614020602683612e4d565b915061402b82613fc4565b604082019050919050565b6000602082019050818103600083015261404f81614013565b9050919050565b7f4552433732313a207472616e736665722066726f6d20696e636f72726563742060008201527f6f776e6572000000000000000000000000000000000000000000000000000000602082015250565b60006140b2602583612e4d565b91506140bd82614056565b604082019050919050565b600060208201905081810360008301526140e1816140a5565b9050919050565b7f4552433732313a207472616e7366657220746f20746865207a65726f2061646460008201527f7265737300000000000000000000000000000000000000000000000000000000602082015250565b6000614144602483612e4d565b915061414f826140e8565b604082019050919050565b6000602082019050818103600083015261417381614137565b9050919050565b7f4f776e61626c653a2063616c6c6572206973206e6f7420746865206f776e6572600082015250565b60006141b0602083612e4d565b91506141bb8261417a565b602082019050919050565b600060208201905081810360008301526141df816141a3565b9050919050565b7f5061757361626c653a2070617573656400000000000000000000000000000000600082015250565b600061421c601083612e4d565b9150614227826141e6565b602082019050919050565b6000602082019050818103600083015261424b8161420f565b9050919050565b7f5265656e7472616e637947756172643a207265656e7472616e742063616c6c00600082015250565b6000614288601f83612e4d565b915061429382614252565b602082019050919050565b600060208201905081810360008301526142b78161427b565b9050919050565b7f4552433732313a20617070726f766520746f2063616c6c657200000000000000600082015250565b60006142f4601983612e4d565b91506142ff826142be565b602082019050919050565b60006020820190508181036000830152614323816142e7565b9050919050565b7f4552433732313a207472616e7366657220746f206e6f6e20455243373231526560008201527f63656976657220696d706c656d656e7465720000000000000000000000000000602082015250565b6000614386603283612e4d565b91506143918261432a565b604082019050919050565b600060208201905081810360008301526143b581614379565b9050919050565b60008160601b9050919050565b60006143d4826143bc565b9050919050565b60006143e6826143c9565b9050919050565b6143fe6143f982612f77565b6143db565b82525050565b600061441082846143ed565b60148201915081905092915050565b7f4e487b7100000000000000000000000000000000000000000000000000000000600052601260045260246000fd5b7f5061757361626c653a206e6f7420706175736564000000000000000000000000600082015250565b6000614484601483612e4d565b915061448f8261444e565b602082019050919050565b600060208201905081810360008301526144b381614477565b9050919050565b600081519050919050565b600082825260208201905092915050565b60006144e1826144ba565b6144eb81856144c5565b93506144fb818560208601612e5e565b61450481612e88565b840191505092915050565b60006080820190506145246000830187612f89565b6145316020830186612f89565b61453e604083018561301f565b818103606083015261455081846144d6565b905095945050505050565b60008151905061456a81612db3565b92915050565b60006020828403121561458657614585612d7d565b5b60006145948482850161455b565b91505092915050565b7f455243373231456e756d657261626c653a20636f6e736563757469766520747260008201527f616e7366657273206e6f7420737570706f727465640000000000000000000000602082015250565b60006145f9603583612e4d565b91506146048261459d565b604082019050919050565b60006020820190508181036000830152614628816145ec565b9050919050565b7f4552433732313a206d696e7420746f20746865207a65726f2061646472657373600082015250565b6000614665602083612e4d565b91506146708261462f565b602082019050919050565b6000602082019050818103600083015261469481614658565b9050919050565b7f4552433732313a20746f6b656e20616c7265616479206d696e74656400000000600082015250565b60006146d1601c83612e4d565b91506146dc8261469b565b602082019050919050565b60006020820190508181036000830152614700816146c4565b9050919050565b600061471282612ef4565b915061471d83612ef4565b925082820390508181111561473557614734613bde565b5b92915050565b7f4e487b7100000000000000000000000000000000000000000000000000000000600052603160045260246000fdfea26469706673582212202a148c2bbd3814e272c06cc04ca848fa9b22214101e913267b722acaa11c244764736f6c63430008110033697066733a2f2f516d544e537451426d7338684b45554c734a73484747517134567937485568386373367a78515a4d554e4c6f72592f",
  "linkReferences": {},
  "deployedLinkReferences": {}
}